{
  "_format": "hh-sol-artifact-1",
  "contractName": "AccessControlManager",
  "sourceName": "contracts/access/AccessControlManager.sol",
  "abi": [
    {
      "inputs": [
        {
          "internalType": "address",
          "name": "admin",
          "type": "address"
        }
      ],
      "stateMutability": "nonpayable",
      "type": "constructor"
    },
    {
      "inputs": [],
      "name": "AccessControlBadConfirmation",
      "type": "error"
    },
    {
      "inputs": [
        {
          "internalType": "address",
          "name": "account",
          "type": "address"
        },
        {
          "internalType": "bytes32",
          "name": "neededRole",
          "type": "bytes32"
        }
      ],
      "name": "AccessControlUnauthorizedAccount",
      "type": "error"
    },
    {
      "anonymous": false,
      "inputs": [
        {
          "indexed": true,
          "internalType": "bytes32",
          "name": "role",
          "type": "bytes32"
        },
        {
          "indexed": true,
          "internalType": "bytes32",
          "name": "previousAdminRole",
          "type": "bytes32"
        },
        {
          "indexed": true,
          "internalType": "bytes32",
          "name": "newAdminRole",
          "type": "bytes32"
        }
      ],
      "name": "RoleAdminChanged",
      "type": "event"
    },
    {
      "anonymous": false,
      "inputs": [
        {
          "indexed": true,
          "internalType": "bytes32",
          "name": "role",
          "type": "bytes32"
        },
        {
          "indexed": true,
          "internalType": "address",
          "name": "account",
          "type": "address"
        },
        {
          "indexed": true,
          "internalType": "address",
          "name": "sender",
          "type": "address"
        }
      ],
      "name": "RoleGranted",
      "type": "event"
    },
    {
      "anonymous": false,
      "inputs": [
        {
          "indexed": true,
          "internalType": "bytes32",
          "name": "role",
          "type": "bytes32"
        },
        {
          "indexed": true,
          "internalType": "address",
          "name": "account",
          "type": "address"
        },
        {
          "indexed": true,
          "internalType": "address",
          "name": "sender",
          "type": "address"
        }
      ],
      "name": "RoleRevoked",
      "type": "event"
    },
    {
      "inputs": [],
      "name": "DEFAULT_ADMIN_ROLE",
      "outputs": [
        {
          "internalType": "bytes32",
          "name": "",
          "type": "bytes32"
        }
      ],
      "stateMutability": "view",
      "type": "function"
    },
    {
      "inputs": [],
      "name": "JOURNALIST_ROLE",
      "outputs": [
        {
          "internalType": "bytes32",
          "name": "",
          "type": "bytes32"
        }
      ],
      "stateMutability": "view",
      "type": "function"
    },
    {
      "inputs": [],
      "name": "REVIEWER_ROLE",
      "outputs": [
        {
          "internalType": "bytes32",
          "name": "",
          "type": "bytes32"
        }
      ],
      "stateMutability": "view",
      "type": "function"
    },
    {
      "inputs": [
        {
          "internalType": "address",
          "name": "user",
          "type": "address"
        }
      ],
      "name": "addJournalist",
      "outputs": [],
      "stateMutability": "nonpayable",
      "type": "function"
    },
    {
      "inputs": [
        {
          "internalType": "bytes32",
          "name": "role",
          "type": "bytes32"
        }
      ],
      "name": "getRoleAdmin",
      "outputs": [
        {
          "internalType": "bytes32",
          "name": "",
          "type": "bytes32"
        }
      ],
      "stateMutability": "view",
      "type": "function"
    },
    {
      "inputs": [
        {
          "internalType": "bytes32",
          "name": "role",
          "type": "bytes32"
        },
        {
          "internalType": "address",
          "name": "account",
          "type": "address"
        }
      ],
      "name": "grantRole",
      "outputs": [],
      "stateMutability": "nonpayable",
      "type": "function"
    },
    {
      "inputs": [
        {
          "internalType": "bytes32",
          "name": "role",
          "type": "bytes32"
        },
        {
          "internalType": "address",
          "name": "account",
          "type": "address"
        }
      ],
      "name": "hasRole",
      "outputs": [
        {
          "internalType": "bool",
          "name": "",
          "type": "bool"
        }
      ],
      "stateMutability": "view",
      "type": "function"
    },
    {
      "inputs": [
        {
          "internalType": "address",
          "name": "user",
          "type": "address"
        }
      ],
      "name": "isAdmin",
      "outputs": [
        {
          "internalType": "bool",
          "name": "",
          "type": "bool"
        }
      ],
      "stateMutability": "view",
      "type": "function"
    },
    {
      "inputs": [
        {
          "internalType": "address",
          "name": "user",
          "type": "address"
        }
      ],
      "name": "isJournalist",
      "outputs": [
        {
          "internalType": "bool",
          "name": "",
          "type": "bool"
        }
      ],
      "stateMutability": "view",
      "type": "function"
    },
    {
      "inputs": [
        {
          "internalType": "address",
          "name": "user",
          "type": "address"
        }
      ],
      "name": "isReviewer",
      "outputs": [
        {
          "internalType": "bool",
          "name": "",
          "type": "bool"
        }
      ],
      "stateMutability": "view",
      "type": "function"
    },
    {
      "inputs": [],
      "name": "registerJournalist",
      "outputs": [],
      "stateMutability": "nonpayable",
      "type": "function"
    },
    {
      "inputs": [
        {
          "internalType": "address",
          "name": "user",
          "type": "address"
        }
      ],
      "name": "removeJournalist",
      "outputs": [],
      "stateMutability": "nonpayable",
      "type": "function"
    },
    {
      "inputs": [
        {
          "internalType": "bytes32",
          "name": "role",
          "type": "bytes32"
        },
        {
          "internalType": "address",
          "name": "callerConfirmation",
          "type": "address"
        }
      ],
      "name": "renounceRole",
      "outputs": [],
      "stateMutability": "nonpayable",
      "type": "function"
    },
    {
      "inputs": [
        {
          "internalType": "bytes32",
          "name": "role",
          "type": "bytes32"
        },
        {
          "internalType": "address",
          "name": "account",
          "type": "address"
        }
      ],
      "name": "revokeRole",
      "outputs": [],
      "stateMutability": "nonpayable",
      "type": "function"
    },
    {
      "inputs": [
        {
          "internalType": "bytes4",
          "name": "interfaceId",
          "type": "bytes4"
        }
      ],
      "name": "supportsInterface",
      "outputs": [
        {
          "internalType": "bool",
          "name": "",
          "type": "bool"
        }
      ],
      "stateMutability": "view",
      "type": "function"
    }
  ],
  "bytecode": "0x60803461006857601f6109b738819003918201601f19168301916001600160401b0383118484101761006c5780849260209460405283398101031261006857516001600160a01b03811681036100685761005890610080565b5060405161088d908161010a8239f35b5f80fd5b634e487b7160e01b5f52604160045260245ffd5b6001600160a01b0381165f9081525f5160206109975f395f51905f52602052604090205460ff16610104576001600160a01b03165f8181525f5160206109975f395f51905f5260205260408120805460ff191660011790553391907f2f8788117e7eff1d82e926ec794901d17c78024a50270940304540a733656f0d8180a4600190565b505f9056fe6080806040526004361015610012575f80fd5b5f3560e01c90816301ffc9a7146104c757508063248a9ca31461049557806324d7806c1461043457806325fcb70c146103fa5780632dbd4adb146103e15780632f2ff15d146103a457806336568abe146103605780633b129a561461032657806370233131146102aa5780638e80d8391461022e57806391d14854146101e5578063a217fddf146101cb578063a342d42a1461016a578063d547741f146101265763fdc6258a146100c1575f80fd5b34610122576020366003190112610122576100da61051a565b6001600160a01b03165f9081527f5c91a81dd90adcbb976f07115cdaa60f95931610e4c2893856278a1e5607a9cc602090815260409182902054915160ff9092161515825290f35b5f80fd5b3461012257604036600319011261012257610168600435610145610530565b9061016361015e825f525f602052600160405f20015490565b6106f3565b6107fd565b005b346101225760203660031901126101225761018361051a565b6001600160a01b03165f9081527ff2e1a04849cda9fc5daab442a3cc38733fc319b63a812642bb218f96566c28d3602090815260409182902054915160ff9092161515825290f35b34610122575f3660031901126101225760206040515f8152f35b34610122576040366003190112610122576101fe610530565b6004355f525f6020526001600160a01b0360405f2091165f52602052602060ff60405f2054166040519015158152f35b346101225760203660031901126101225761016861024a61051a565b6102526106a4565b7f6a275db3e2c854de54a3372411e9ed2b3324b01a8827b1f65db0606e61f651c85f9081526020527ff2e1a04849cda9fc5daab442a3cc38733fc319b63a812642bb218f96566c28d4546102a5906106f3565b610733565b34610122576020366003190112610122576101686102c661051a565b6102ce6106a4565b7f6a275db3e2c854de54a3372411e9ed2b3324b01a8827b1f65db0606e61f651c85f9081526020527ff2e1a04849cda9fc5daab442a3cc38733fc319b63a812642bb218f96566c28d454610321906106f3565b610546565b34610122575f3660031901126101225760206040517fc10c77be35aff266144ed64c26a1fa104bae2f284ae99ac4a34203454704a1858152f35b3461012257604036600319011261012257610379610530565b336001600160a01b0382160361039557610168906004356107fd565b63334bd91960e11b5f5260045ffd5b34610122576040366003190112610122576101686004356103c3610530565b906103dc61015e825f525f602052600160405f20015490565b610617565b34610122575f3660031901126101225761016833610546565b34610122575f3660031901126101225760206040517f6a275db3e2c854de54a3372411e9ed2b3324b01a8827b1f65db0606e61f651c88152f35b346101225760203660031901126101225761044d61051a565b6001600160a01b03165f9081527fad3228b676f7d3cd4284a5443f17f1962b36e491b30a40b2405849e597ba5fb5602090815260409182902054915160ff9092161515825290f35b346101225760203660031901126101225760206104bf6004355f525f602052600160405f20015490565b604051908152f35b34610122576020366003190112610122576004359063ffffffff60e01b821680920361012257602091637965db0b60e01b8114908115610509575b5015158152f35b6301ffc9a760e01b14905083610502565b600435906001600160a01b038216820361012257565b602435906001600160a01b038216820361012257565b6001600160a01b0381165f9081527ff2e1a04849cda9fc5daab442a3cc38733fc319b63a812642bb218f96566c28d3602052604090205460ff16610612576001600160a01b03165f8181527ff2e1a04849cda9fc5daab442a3cc38733fc319b63a812642bb218f96566c28d360205260408120805460ff191660011790553391907f6a275db3e2c854de54a3372411e9ed2b3324b01a8827b1f65db0606e61f651c8907f2f8788117e7eff1d82e926ec794901d17c78024a50270940304540a733656f0d9080a4600190565b505f90565b805f525f60205260405f206001600160a01b0383165f5260205260ff60405f205416155f1461069e57805f525f60205260405f206001600160a01b0383165f5260205260405f20600160ff198254161790556001600160a01b03339216907f2f8788117e7eff1d82e926ec794901d17c78024a50270940304540a733656f0d5f80a4600190565b50505f90565b335f9081527fad3228b676f7d3cd4284a5443f17f1962b36e491b30a40b2405849e597ba5fb5602052604090205460ff16156106dc57565b63e2517d3f60e01b5f52336004525f60245260445ffd5b805f525f60205260405f206001600160a01b0333165f5260205260ff60405f2054161561071d5750565b63e2517d3f60e01b5f523360045260245260445ffd5b6001600160a01b0381165f9081527ff2e1a04849cda9fc5daab442a3cc38733fc319b63a812642bb218f96566c28d3602052604090205460ff1615610612576001600160a01b03165f8181527ff2e1a04849cda9fc5daab442a3cc38733fc319b63a812642bb218f96566c28d360205260408120805460ff191690553391907f6a275db3e2c854de54a3372411e9ed2b3324b01a8827b1f65db0606e61f651c8907ff6391f5c32d9c69d2a47ea670b442974b53935d1edc7fd64eb21e047a839171b9080a4600190565b805f525f60205260405f206001600160a01b0383165f5260205260ff60405f2054165f1461069e57805f525f60205260405f206001600160a01b0383165f5260205260405f2060ff1981541690556001600160a01b03339216907ff6391f5c32d9c69d2a47ea670b442974b53935d1edc7fd64eb21e047a839171b5f80a460019056fea164736f6c634300081b000aad3228b676f7d3cd4284a5443f17f1962b36e491b30a40b2405849e597ba5fb5",
  "linkReferences": {},
  "deployedLinkReferences": {}
}