{
  "_format": "hh-sol-artifact-1",
  "contractName": "AuditTrail",
  "sourceName": "contracts/audit/AuditTrail.sol",
  "abi": [
    {
      "inputs": [
        {
          "internalType": "address",
          "name": "_accessControl",
          "type": "address"
        }
      ],
      "stateMutability": "nonpayable",
      "type": "constructor"
    },
    {
      "anonymous": false,
      "inputs": [
        {
          "indexed": true,
          "internalType": "uint256",
          "name": "caseId",
          "type": "uint256"
        },
        {
          "indexed": false,
          "internalType": "string",
          "name": "action",
          "type": "string"
        },
        {
          "indexed": true,
          "internalType": "address",
          "name": "performer",
          "type": "address"
        }
      ],
      "name": "AuditLogged",
      "type": "event"
    },
    {
      "inputs": [],
      "name": "accessControl",
      "outputs": [
        {
          "internalType": "contract IAccessControlManager",
          "name": "",
          "type": "address"
        }
      ],
      "stateMutability": "view",
      "type": "function"
    },
    {
      "inputs": [
        {
          "internalType": "uint256",
          "name": "caseId",
          "type": "uint256"
        }
      ],
      "name": "getAuditTrail",
      "outputs": [
        {
          "components": [
            {
              "internalType": "uint256",
              "name": "caseId",
              "type": "uint256"
            },
            {
              "internalType": "uint256",
              "name": "timestamp",
              "type": "uint256"
            },
            {
              "internalType": "string",
              "name": "action",
              "type": "string"
            },
            {
              "internalType": "address",
              "name": "performer",
              "type": "address"
            }
          ],
          "internalType": "struct AuditTrail.AuditEntry[]",
          "name": "",
          "type": "tuple[]"
        }
      ],
      "stateMutability": "view",
      "type": "function"
    },
    {
      "inputs": [
        {
          "internalType": "uint256",
          "name": "caseId",
          "type": "uint256"
        },
        {
          "internalType": "string",
          "name": "action",
          "type": "string"
        }
      ],
      "name": "logAction",
      "outputs": [],
      "stateMutability": "nonpayable",
      "type": "function"
    }
  ],
  "bytecode": "0x60a0604052348015600e575f5ffd5b50604051610650380380610650833981016040819052602b91603b565b6001600160a01b03166080526066565b5f60208284031215604a575f5ffd5b81516001600160a01b0381168114605f575f5ffd5b9392505050565b6080516105d361007d5f395f604801526105d35ff3fe608060405234801561000f575f5ffd5b506004361061003f575f3560e01c806313007d55146100435780632318ec9b14610087578063c231fa461461009c575b5f5ffd5b61006a7f000000000000000000000000000000000000000000000000000000000000000081565b6040516001600160a01b0390911681526020015b60405180910390f35b61009a610095366004610302565b6100bc565b005b6100af6100aa366004610379565b6101e3565b60405161007e9190610390565b5f5f8481526020019081526020015f20604051806080016040528085815260200142815260200184848080601f0160208091040260200160405190810160405280939291908181526020018383808284375f9201829052509385525050336020938401525083546001818101865594825290829020835160049092020190815590820151928101929092556040810151909190600282019061015e90826104dd565b5060609190910151600390910180547fffffffffffffffffffffffff0000000000000000000000000000000000000000166001600160a01b03909216919091179055604051339084907f16147196284d14f45e1d0340e433213b73a7dd653d82fde9131bfd8a72d99438906101d69086908690610598565b60405180910390a3505050565b5f81815260208181526040808320805482518185028101850190935280835260609492939192909184015b828210156102f7578382905f5260205f2090600402016040518060800160405290815f82015481526020016001820154815260200160028201805461025290610459565b80601f016020809104026020016040519081016040528092919081815260200182805461027e90610459565b80156102c95780601f106102a0576101008083540402835291602001916102c9565b820191905f5260205f20905b8154815290600101906020018083116102ac57829003601f168201915b5050509183525050600391909101546001600160a01b0316602091820152908252600192909201910161020e565b505050509050919050565b5f5f5f60408486031215610314575f5ffd5b83359250602084013567ffffffffffffffff811115610331575f5ffd5b8401601f81018613610341575f5ffd5b803567ffffffffffffffff811115610357575f5ffd5b866020828401011115610368575f5ffd5b939660209190910195509293505050565b5f60208284031215610389575f5ffd5b5035919050565b5f602082016020835280845180835260408501915060408160051b8601019250602086015f5b8281101561043957603f19878603018452815180518652602081015160208701526040810151608060408801528051806080890152806020830160a08a015e5f60a0828a0101526001600160a01b03606084015116606089015260a0601f19601f83011689010197505050506020820191506020840193506001810190506103b6565b50929695505050505050565b634e487b7160e01b5f52604160045260245ffd5b600181811c9082168061046d57607f821691505b60208210810361048b57634e487b7160e01b5f52602260045260245ffd5b50919050565b601f8211156104d857805f5260205f20601f840160051c810160208510156104b65750805b601f840160051c820191505b818110156104d5575f81556001016104c2565b50505b505050565b815167ffffffffffffffff8111156104f7576104f7610445565b61050b816105058454610459565b84610491565b6020601f82116001811461053d575f83156105265750848201515b5f19600385901b1c1916600184901b1784556104d5565b5f84815260208120601f198516915b8281101561056c578785015182556020948501946001909201910161054c565b508482101561058957868401515f19600387901b60f8161c191681555b50505050600190811b01905550565b60208152816020820152818360408301375f818301604090810191909152601f909201601f1916010191905056fea164736f6c634300081b000a",
  "linkReferences": {},
  "deployedLinkReferences": {}
}