{
  "_format": "hh-sol-artifact-1",
  "contractName": "AuditTrail",
  "sourceName": "contracts/audit/AuditTrail.sol",
  "abi": [
    {
      "inputs": [
        {
          "internalType": "address",
          "name": "_accessControl",
          "type": "address"
        }
      ],
      "stateMutability": "nonpayable",
      "type": "constructor"
    },
    {
      "anonymous": false,
      "inputs": [
        {
          "indexed": true,
          "internalType": "uint256",
          "name": "caseId",
          "type": "uint256"
        },
        {
          "indexed": false,
          "internalType": "string",
          "name": "action",
          "type": "string"
        },
        {
          "indexed": true,
          "internalType": "address",
          "name": "performer",
          "type": "address"
        }
      ],
      "name": "AuditLogged",
      "type": "event"
    },
    {
      "inputs": [],
      "name": "accessControl",
      "outputs": [
        {
          "internalType": "contract IAccessControlManager",
          "name": "",
          "type": "address"
        }
      ],
      "stateMutability": "view",
      "type": "function"
    },
    {
      "inputs": [
        {
          "internalType": "uint256",
          "name": "caseId",
          "type": "uint256"
        }
      ],
      "name": "getAuditTrail",
      "outputs": [
        {
          "components": [
            {
              "internalType": "uint256",
              "name": "caseId",
              "type": "uint256"
            },
            {
              "internalType": "uint256",
              "name": "timestamp",
              "type": "uint256"
            },
            {
              "internalType": "string",
              "name": "action",
              "type": "string"
            },
            {
              "internalType": "address",
              "name": "performer",
              "type": "address"
            }
          ],
          "internalType": "struct AuditTrail.AuditEntry[]",
          "name": "",
          "type": "tuple[]"
        }
      ],
      "stateMutability": "view",
      "type": "function"
    },
    {
      "inputs": [
        {
          "internalType": "uint256",
          "name": "caseId",
          "type": "uint256"
        },
        {
          "internalType": "string",
          "name": "action",
          "type": "string"
        }
      ],
      "name": "logAction",
      "outputs": [],
      "stateMutability": "nonpayable",
      "type": "function"
    }
  ],
  "bytecode": "0x60a034606857601f61064138819003918201601f19168301916001600160401b03831184841017606c57808492602094604052833981010312606857516001600160a01b038116908190036068576080526040516105c090816100818239608051816105190152f35b5f80fd5b634e487b7160e01b5f52604160045260245ffdfe6080806040526004361015610012575f80fd5b5f3560e01c90816313007d55146104fc575080632318ec9b1461023d5763c231fa461461003d575f80fd5b34610239576020366003190112610239576004355f525f60205260405f2080549067ffffffffffffffff8211610225576040519161008160208260051b0184610559565b808352602083019081925f5260205f205f925b82841061014657848660405191829160208301906020845251809152604083019060408160051b85010192915f905b8282106100d257505050500390f35b9193600191939550602060a08192603f198a8203018652826001600160a01b0360608b518051855283810151848601526040810151608060408701528051948591826080890152018787015e5f8685870101520151166060830152601f8019910116010196019201920185949391926100c3565b6040516101528161053d565b82548152600183015460208201526040516002840180545f916101748261057b565b808552916001811690811561020057506001146101c9575b505092600492826101a36020946001970382610559565b60408201526001600160a01b036003870154166060820152815201920193019290610094565b5f908152602081209092505b8183106101ea5750508101602001828261018c565b60018160209254838688010152019201916101d5565b60ff191660208087019190915292151560051b8501909201925084915083905061018c565b634e487b7160e01b5f52604160045260245ffd5b5f80fd5b346102395760403660031901126102395760243560043567ffffffffffffffff821161023957366023830112156102395781600401359167ffffffffffffffff8311610239576024810190602484369201011161023957815f525f60205260405f2092604051936102ad8561053d565b8385526020850194428652601f19601f84011695604051906102d26020890183610559565b848252848660208401375f602086840101526040830191825260608301933385528054906801000000000000000082101561022557600182018082558210156104e8575f5260205f209060021b019251835551600183015560028201905180519067ffffffffffffffff82116102255761034c835461057b565b601f81116104a3575b50602090601f831160011461040e576040947f16147196284d14f45e1d0340e433213b73a7dd653d82fde9131bfd8a72d99438989794845f98956001600160a01b03956003958b92610403575b50508160011b918a1990861b1c19161790555b019151167fffffffffffffffffffffffff00000000000000000000000000000000000000008254161790558082519460208652816020870152838601378301015260408133958101030190a3005b015190508e806103a2565b90601f19831691845f52815f20925f5b81811061048b5750946001856001600160a01b039560039560409a955f9c997f16147196284d14f45e1d0340e433213b73a7dd653d82fde9131bfd8a72d994389f9e9b10610474575b505050811b0190556103b5565b01518b1960f884891b161c191690558e8080610467565b9293602060018192878601518155019501930161041e565b835f5260205f20601f840160051c810191602085106104de575b601f0160051c01905b8181106104d35750610355565b5f81556001016104c6565b90915081906104bd565b634e487b7160e01b5f52603260045260245ffd5b34610239575f366003190112610239576020906001600160a01b037f0000000000000000000000000000000000000000000000000000000000000000168152f35b6080810190811067ffffffffffffffff82111761022557604052565b90601f8019910116810190811067ffffffffffffffff82111761022557604052565b90600182811c921680156105a9575b602083101461059557565b634e487b7160e01b5f52602260045260245ffd5b91607f169161058a56fea164736f6c634300081b000a",
  "linkReferences": {},
  "deployedLinkReferences": {}
}