{
  "_format": "hh-sol-artifact-1",
  "contractName": "FHECounter",
  "sourceName": "contracts/FHECounter.sol",
  "abi": [
    {
      "inputs": [
        {
          "internalType": "bytes32",
          "name": "handle",
          "type": "bytes32"
        },
        {
          "internalType": "address",
          "name": "sender",
          "type": "address"
        }
      ],
      "name": "SenderNotAllowedToUseHandle",
      "type": "error"
    },
    {
      "inputs": [],
      "name": "ZamaProtocolUnsupported",
      "type": "error"
    },
    {
      "inputs": [],
      "name": "confidentialProtocolId",
      "outputs": [
        {
          "internalType": "uint256",
          "name": "",
          "type": "uint256"
        }
      ],
      "stateMutability": "view",
      "type": "function"
    },
    {
      "inputs": [
        {
          "internalType": "externalEuint32",
          "name": "inputEuint32",
          "type": "bytes32"
        },
        {
          "internalType": "bytes",
          "name": "inputProof",
          "type": "bytes"
        }
      ],
      "name": "decrement",
      "outputs": [],
      "stateMutability": "nonpayable",
      "type": "function"
    },
    {
      "inputs": [],
      "name": "getCount",
      "outputs": [
        {
          "internalType": "euint32",
          "name": "",
          "type": "bytes32"
        }
      ],
      "stateMutability": "view",
      "type": "function"
    },
    {
      "inputs": [
        {
          "internalType": "externalEuint32",
          "name": "inputEuint32",
          "type": "bytes32"
        },
        {
          "internalType": "bytes",
          "name": "inputProof",
          "type": "bytes"
        }
      ],
      "name": "increment",
      "outputs": [],
      "stateMutability": "nonpayable",
      "type": "function"
    }
  ],
  "bytecode": "0x60806040523461020e57610011610245565b504660010361012a57610022610245565b5061002b610212565b73ca2e8f1f656cd25c01f05d0b243ab1ecd4a8ffb6815273d82385dada1ae3e969447f20a3164f6213100e7560208201527377627828a55156b04ac0dc0eb30467f1a552bb0360408201525b80517f9e7b61f58c47dc699ac88507c4f5bb9f121c03808c5676a8078fe583e464970080546001600160a01b039283166001600160a01b03199182161790915560208301517f9e7b61f58c47dc699ac88507c4f5bb9f121c03808c5676a8078fe583e464970180549184169183169190911790556040928301517f9e7b61f58c47dc699ac88507c4f5bb9f121c03808c5676a8078fe583e46497028054919093169116179055516106bd90816102608239f35b4662aa36a7036101955761013c610245565b50610145610212565b73f0ffdc93b7e186bc2f8cb3daa75d86d1930a433d81527392c920834ec8941d2c77d188936e1f7a6f49c127602082015273be0e383937d564d7ff0bc3b46c51f0bf8d5c311a6040820152610077565b46617a69036101ff576101a6610245565b506101af610212565b7350157cffd6bbfa2dece204a89ec419c23ef5755d815273e3a9105a3a932253a70f126eb1e3b589c643dd24602082015273901f8942346f7ab3a01f6d7613119bca447bb0306040820152610077565b6373cac13b60e01b5f5260045ffd5b5f80fd5b60405190606082016001600160401b0381118382101761023157604052565b634e487b7160e01b5f52604160045260245ffd5b61024d610212565b905f82525f60208301525f604083015256fe60806040526004361015610011575f80fd5b5f3560e01c80635941195d1461019b5780638927b03014610179578063a87d942c1461015d5763e055f8f914610045575f80fd5b346101245761006961006361005936610250565b92919236916102da565b90610320565b5f549080821561014d575b1561013b575b60209060646001600160a01b037f9e7b61f58c47dc699ac88507c4f5bb9f121c03808c5676a8078fe583e46497015416935f60405195869485936303056db360e31b8552600485015260248401528160448401525af18015610130575f906100f8575b806100e9915f5561052e565b506100f65f54339061054d565b005b506020813d602011610128575b81610112602093836102a4565b81010312610124576100e990516100dd565b5f80fd5b3d9150610105565b6040513d5f823e3d90fd5b5060206101466105a3565b905061007a565b91506101576105a3565b91610074565b34610124575f3660031901126101245760205f54604051908152f35b34610124575f366003190112610124576020610193610574565b604051908152f35b34610124576101af61006361005936610250565b5f5490808215610240575b1561022e575b60209060646001600160a01b037f9e7b61f58c47dc699ac88507c4f5bb9f121c03808c5676a8078fe583e46497015416935f604051958694859363022f65e760e31b8552600485015260248401528160448401525af18015610130575f906100f857806100e9915f5561052e565b5060206102396105a3565b90506101c0565b915061024a6105a3565b916101ba565b6040600319820112610124576004359160243567ffffffffffffffff811161012457826023820112156101245780600401359267ffffffffffffffff84116101245760248483010111610124576024019190565b90601f8019910116810190811067ffffffffffffffff8211176102c657604052565b634e487b7160e01b5f52604160045260245ffd5b92919267ffffffffffffffff82116102c65760405191610304601f8201601f1916602001846102a4565b829481845281830111610124578281602093845f960137010152565b8151156104635760209182916001600160a01b037f9e7b61f58c47dc699ac88507c4f5bb9f121c03808c5676a8078fe583e46497015416905f60a460405180978196829563045fc19560e11b84526004840152336024840152608060448401528051918291826084860152018484015e818101830184905260046064830152601f01601f191681010301925af1908115610130575f91610431575b506001600160a01b037f9e7b61f58c47dc699ac88507c4f5bb9f121c03808c5676a8078fe583e46497005416803b1561012457604051630f8e573b60e21b815260048101839052336024820152905f908290604490829084905af1801561013057610424575090565b5f61042e916102a4565b90565b90506020813d60201161045b575b8161044c602093836102a4565b8101031261012457515f6103bb565b3d915061043f565b80915015610525577f9e7b61f58c47dc699ac88507c4f5bb9f121c03808c5676a8078fe583e4649700546040516382027b6d60e01b81526004810183905233602482015290602090829060449082906001600160a01b03165afa908115610130575f916104ea575b50156104d45790565b630276b5d960e01b5f526004523360245260445ffd5b90506020813d60201161051d575b81610505602093836102a4565b8101031261012457518015158103610124575f6104cb565b3d91506104f8565b5061042e6105a3565b801561053f575b61042e3082610633565b506105486105a3565b610535565b90811561055f575b61042e9082610633565b905061042e61056c6105a3565b919050610555565b4660010361058157600190565b4662aa36a7036105915761271190565b617a69461461059e575f90565b5f1990565b5f60206001600160a01b037f9e7b61f58c47dc699ac88507c4f5bb9f121c03808c5676a8078fe583e46497015416604460405180948193639cd07acb60e01b8352816004840152600460248401525af1908115610130575f91610604575090565b90506020813d60201161062b575b8161061f602093836102a4565b81010312610124575190565b3d9150610612565b6001600160a01b037f9e7b61f58c47dc699ac88507c4f5bb9f121c03808c5676a8078fe583e4649700541691823b1561012457604051635ca4b5b160e11b815260048101929092526001600160a01b03166024820152905f908290604490829084905af18015610130576106a45750565b5f6106ae916102a4565b56fea164736f6c634300081b000a",
  "linkReferences": {},
  "deployedLinkReferences": {}
}