{
  "_format": "hh-sol-artifact-1",
  "contractName": "RewardManager",
  "sourceName": "contracts/rewards/RewardManager.sol",
  "abi": [
    {
      "inputs": [
        {
          "internalType": "address",
          "name": "_caseManager",
          "type": "address"
        },
        {
          "internalType": "address",
          "name": "_accessControl",
          "type": "address"
        }
      ],
      "stateMutability": "nonpayable",
      "type": "constructor"
    },
    {
      "inputs": [
        {
          "internalType": "uint256",
          "name": "caseId",
          "type": "uint256"
        }
      ],
      "name": "NoRewardConfigured",
      "type": "error"
    },
    {
      "inputs": [
        {
          "internalType": "address",
          "name": "caller",
          "type": "address"
        }
      ],
      "name": "NotAdmin",
      "type": "error"
    },
    {
      "inputs": [
        {
          "internalType": "address",
          "name": "caller",
          "type": "address"
        },
        {
          "internalType": "uint256",
          "name": "caseId",
          "type": "uint256"
        }
      ],
      "name": "OnlyCaseJournalist",
      "type": "error"
    },
    {
      "inputs": [
        {
          "internalType": "uint256",
          "name": "caseId",
          "type": "uint256"
        }
      ],
      "name": "RewardAlreadyApproved",
      "type": "error"
    },
    {
      "inputs": [
        {
          "internalType": "uint256",
          "name": "caseId",
          "type": "uint256"
        }
      ],
      "name": "RewardAlreadyPaid",
      "type": "error"
    },
    {
      "inputs": [
        {
          "internalType": "bytes32",
          "name": "handle",
          "type": "bytes32"
        },
        {
          "internalType": "address",
          "name": "sender",
          "type": "address"
        }
      ],
      "name": "SenderNotAllowedToUseHandle",
      "type": "error"
    },
    {
      "inputs": [],
      "name": "ZamaProtocolUnsupported",
      "type": "error"
    },
    {
      "anonymous": false,
      "inputs": [
        {
          "indexed": true,
          "internalType": "uint256",
          "name": "caseId",
          "type": "uint256"
        }
      ],
      "name": "RewardApproved",
      "type": "event"
    },
    {
      "anonymous": false,
      "inputs": [
        {
          "indexed": true,
          "internalType": "uint256",
          "name": "caseId",
          "type": "uint256"
        },
        {
          "indexed": true,
          "internalType": "address",
          "name": "whistleblower",
          "type": "address"
        },
        {
          "indexed": false,
          "internalType": "uint256",
          "name": "amount",
          "type": "uint256"
        }
      ],
      "name": "RewardDistributed",
      "type": "event"
    },
    {
      "inputs": [],
      "name": "accessControl",
      "outputs": [
        {
          "internalType": "contract IAccessControlManager",
          "name": "",
          "type": "address"
        }
      ],
      "stateMutability": "view",
      "type": "function"
    },
    {
      "inputs": [
        {
          "internalType": "uint256",
          "name": "caseId",
          "type": "uint256"
        },
        {
          "internalType": "externalEuint256",
          "name": "encryptedAmount",
          "type": "bytes32"
        },
        {
          "internalType": "bytes",
          "name": "inputProof",
          "type": "bytes"
        }
      ],
      "name": "approveReward",
      "outputs": [],
      "stateMutability": "nonpayable",
      "type": "function"
    },
    {
      "inputs": [],
      "name": "caseManager",
      "outputs": [
        {
          "internalType": "contract IWhisperCaseManager",
          "name": "",
          "type": "address"
        }
      ],
      "stateMutability": "view",
      "type": "function"
    },
    {
      "inputs": [],
      "name": "confidentialProtocolId",
      "outputs": [
        {
          "internalType": "uint256",
          "name": "",
          "type": "uint256"
        }
      ],
      "stateMutability": "view",
      "type": "function"
    },
    {
      "inputs": [
        {
          "internalType": "uint256",
          "name": "caseId",
          "type": "uint256"
        },
        {
          "internalType": "address",
          "name": "whistleblower",
          "type": "address"
        }
      ],
      "name": "distributeReward",
      "outputs": [],
      "stateMutability": "nonpayable",
      "type": "function"
    },
    {
      "inputs": [
        {
          "internalType": "uint256",
          "name": "",
          "type": "uint256"
        }
      ],
      "name": "rewards",
      "outputs": [
        {
          "internalType": "uint256",
          "name": "caseId",
          "type": "uint256"
        },
        {
          "internalType": "euint256",
          "name": "encryptedAmount",
          "type": "bytes32"
        },
        {
          "internalType": "bool",
          "name": "approved",
          "type": "bool"
        },
        {
          "internalType": "bool",
          "name": "paid",
          "type": "bool"
        },
        {
          "internalType": "address",
          "name": "recipient",
          "type": "address"
        }
      ],
      "stateMutability": "view",
      "type": "function"
    },
    {
      "inputs": [
        {
          "internalType": "address",
          "name": "_stats",
          "type": "address"
        }
      ],
      "name": "setStats",
      "outputs": [],
      "stateMutability": "nonpayable",
      "type": "function"
    },
    {
      "inputs": [],
      "name": "stats",
      "outputs": [
        {
          "internalType": "contract IWhisperStats",
          "name": "",
          "type": "address"
        }
      ],
      "stateMutability": "view",
      "type": "function"
    }
  ],
  "bytecode": "0x60c06040523461028f57604051601f6110de38819003918201601f19168301916001600160401b0383118484101761029357808492604094855283398101031261028f576100586020610051836102c6565b92016102c6565b906100616102da565b50466001036101ab576100726102da565b5061007b6102a7565b73ca2e8f1f656cd25c01f05d0b243ab1ecd4a8ffb6815273d82385dada1ae3e969447f20a3164f6213100e7560208201527377627828a55156b04ac0dc0eb30467f1a552bb0360408201525b80517f9e7b61f58c47dc699ac88507c4f5bb9f121c03808c5676a8078fe583e464970080546001600160a01b03199081166001600160a01b039384161790915560208301517f9e7b61f58c47dc699ac88507c4f5bb9f121c03808c5676a8078fe583e4649701805483169184169190911790556040928301517f9e7b61f58c47dc699ac88507c4f5bb9f121c03808c5676a8078fe583e46497028054909216908316179055918216608052911660a05251610de990816102f582396080518181816104910152610a0a015260a0518181816101200152818161051a0152610a4b0152f35b4662aa36a703610216576101bd6102da565b506101c66102a7565b73f0ffdc93b7e186bc2f8cb3daa75d86d1930a433d81527392c920834ec8941d2c77d188936e1f7a6f49c127602082015273be0e383937d564d7ff0bc3b46c51f0bf8d5c311a60408201526100c7565b46617a6903610280576102276102da565b506102306102a7565b7350157cffd6bbfa2dece204a89ec419c23ef5755d815273e3a9105a3a932253a70f126eb1e3b589c643dd24602082015273901f8942346f7ab3a01f6d7613119bca447bb03060408201526100c7565b6373cac13b60e01b5f5260045ffd5b5f80fd5b634e487b7160e01b5f52604160045260245ffd5b60405190606082016001600160401b0381118382101761029357604052565b51906001600160a01b038216820361028f57565b6102e26102a7565b905f82525f60208301525f604083015256fe6080806040526004361015610012575f80fd5b5f905f3560e01c90816313007d5514610a2e575080633eb84530146109eb57806343bcc29b1461082e5780638927b0301461080b5780639c93c96c1461020e578063d80528ae146101e8578063d8d2317c146100df5763f301af4214610076575f80fd5b346100dc5760203660031901126100dc57604060a09160043581526001602052206001600160a01b038154916002600182015491015490604051938452602084015260ff81161515604084015260ff8160081c161515606084015260101c166080820152f35b80fd5b50346100dc5760203660031901126100dc576004356001600160a01b0381168091036101e457604051630935e01b60e21b81523360048201526020816024817f00000000000000000000000000000000000000000000000000000000000000006001600160a01b03165afa9081156101d957839161019b575b5015610188577fffffffffffffffffffffffff000000000000000000000000000000000000000082541617815580f35b630bd4212160e11b825233600452602482fd5b90506020813d6020116101d1575b816101b660209383610a6f565b810103126101cd576101c790610b07565b5f610158565b8280fd5b3d91506101a9565b6040513d85823e3d90fd5b5080fd5b50346100dc57806003193601126100dc576001600160a01b036020915416604051908152f35b50346100dc5760603660031901126100dc5760043560443567ffffffffffffffff81116101cd57366023820112156101cd57806004013567ffffffffffffffff81116108075736602482840101116108075782610476575b828452600160205260ff6002604086200154166104625790836020838060246102916102b397610aa5565b9561029f6040519788610a6f565b828752018386013783010152602435610b43565b82818015610454575b6001600160a01b037f9e7b61f58c47dc699ac88507c4f5bb9f121c03808c5676a8078fe583e46497005416803b156101cd57604051635ca4b5b160e11b8152600481019290925230602483015282908290604490829084905af1801561044957610434575b50506040519060a0820182811067ffffffffffffffff821117610420576103f992916001600160a01b039160405284835260208301908152604083019260018452600260608201918883526080810193898552888a52600160205260408a2091518255516001820155019351151560ff8019865416911617845551151561ff0084549160081b169061ff00191617835551167fffffffffffffffffffff0000000000000000000000000000000000000000ffff75ffffffffffffffffffffffffffffffffffffffff000083549260101b169116179055565b7fd279c96299c33ca27f3533f82bc77441dc63328f93848b0275600bd9aed166708280a280f35b634e487b7160e01b85526041600452602485fd5b8161043e91610a6f565b6101cd57825f610321565b6040513d84823e3d90fd5b5061045d610d4c565b6102bc565b63224bcbd960e21b84526004839052602484fd5b604051630152342160e71b81526004810184905284816024817f00000000000000000000000000000000000000000000000000000000000000006001600160a01b03165afa9081156105975785916105a2575b5060206001600160a01b0391015116331415806104fe575b1561026657639b49bd6960e01b8452336004526024839052604484fd5b50604051630935e01b60e21b81523360048201526020816024817f00000000000000000000000000000000000000000000000000000000000000006001600160a01b03165afa908115610597578591610559575b50156104e1565b90506020813d60201161058f575b8161057460209383610a6f565b8101031261058b5761058590610b07565b5f610552565b8480fd5b3d9150610567565b6040513d87823e3d90fd5b90503d8086833e6105b38183610a6f565b8101906020818303126107ff5780519067ffffffffffffffff821161080357016101a0818303126107ff57604051916101a0830183811067ffffffffffffffff8211176107eb576040528151835260208201516001600160a01b03811681036107e757602084015260408201516040840152606082015167ffffffffffffffff81116107e75781610645918401610ac1565b6060840152608082015167ffffffffffffffff81116107e7578161066a918401610ac1565b608084015260a082015167ffffffffffffffff81116107e7578161068f918401610ac1565b60a084015260c082015167ffffffffffffffff81116107e757816106b4918401610ac1565b60c084015260e082015167ffffffffffffffff81116107e757816106d9918401610ac1565b60e084015261010082015167ffffffffffffffff81116107e75782019080601f830112156107e75781519167ffffffffffffffff83116107d3578260051b604051936107286020830186610a6f565b8452602080850191830101918383116107cf5760208101915b83831061079d575050505050916101806020926001600160a01b039461010084015261012081015161012084015261077c6101408201610b07565b610140840152610160810151610160840152015161018082015291506104c9565b825167ffffffffffffffff81116107cb576020916107c087848094870101610ac1565b815201920191610741565b8c80fd5b8a80fd5b634e487b7160e01b89526041600452602489fd5b8780fd5b634e487b7160e01b88526041600452602488fd5b8580fd5b8680fd5b8380fd5b50346100dc57806003193601126100dc576020610826610b14565b604051908152f35b50346109c15760403660031901126109c157600435602435906001600160a01b038216918281036109c157815f526001602052600260405f2001805460ff8116156109d85760ff8160081c166109c5577fffffffffffffffffffff000000000000000000000000000000000000000000ff1660109290921b75ffffffffffffffffffffffffffffffffffffffff000016919091176101001790556001600160a01b035f541680610909575b507fab7542bafced3da2d8c881cb2dd1de859fac7c20d3650d2902ad389a64e0888360206040516103e88152a380f35b803b156109c1575f80916044604051809481936316a1fc3b60e11b83528860048401526103e860248401525af180156109b6576109a1575b50826001600160a01b03815416803b156101e45781809160446040518094819363af38432d60e01b83523360048401526103e860248401525af180156104495761098c575b506108d9565b8161099691610a6f565b6101cd57825f610986565b6109ae9193505f90610a6f565b5f915f610941565b6040513d5f823e3d90fd5b5f80fd5b8363447fb60960e11b5f5260045260245ffd5b83638217057560e01b5f5260045260245ffd5b346109c1575f3660031901126109c15760206040516001600160a01b037f0000000000000000000000000000000000000000000000000000000000000000168152f35b346109c1575f3660031901126109c1576020906001600160a01b037f0000000000000000000000000000000000000000000000000000000000000000168152f35b90601f8019910116810190811067ffffffffffffffff821117610a9157604052565b634e487b7160e01b5f52604160045260245ffd5b67ffffffffffffffff8111610a9157601f01601f191660200190565b81601f820112156109c157805190610ad882610aa5565b92610ae66040519485610a6f565b828452602083830101116109c157815f9260208093018386015e8301015290565b519081151582036109c157565b46600103610b2157600190565b4662aa36a703610b315761271190565b617a694614610b3e575f90565b5f1990565b815115610c865760209182916001600160a01b037f9e7b61f58c47dc699ac88507c4f5bb9f121c03808c5676a8078fe583e46497015416905f60a460405180978196829563045fc19560e11b84526004840152336024840152608060448401528051918291826084860152018484015e818101830184905260086064830152601f01601f191681010301925af19081156109b6575f91610c54575b506001600160a01b037f9e7b61f58c47dc699ac88507c4f5bb9f121c03808c5676a8078fe583e46497005416803b156109c157604051630f8e573b60e21b815260048101839052336024820152905f908290604490829084905af180156109b657610c47575090565b5f610c5191610a6f565b90565b90506020813d602011610c7e575b81610c6f60209383610a6f565b810103126109c157515f610bde565b3d9150610c62565b80915015610d47577f9e7b61f58c47dc699ac88507c4f5bb9f121c03808c5676a8078fe583e4649700546040516382027b6d60e01b81526004810183905233602482015290602090829060449082906001600160a01b03165afa9081156109b6575f91610d0d575b5015610cf75790565b630276b5d960e01b5f526004523360245260445ffd5b90506020813d602011610d3f575b81610d2860209383610a6f565b810103126109c157610d3990610b07565b5f610cee565b3d9150610d1b565b50610c515b7f9e7b61f58c47dc699ac88507c4f5bb9f121c03808c5676a8078fe583e464970154604051639cd07acb60e01b81525f6004820152906001600160a01b0316816044815f602094600860248401525af19081156109b6575f91610dad575090565b90506020813d602011610dd4575b81610dc860209383610a6f565b810103126109c1575190565b3d9150610dbb56fea164736f6c634300081b000a",
  "linkReferences": {},
  "deployedLinkReferences": {}
}