{
  "_format": "hh-sol-artifact-1",
  "contractName": "RewardManager",
  "sourceName": "contracts/rewards/RewardManager.sol",
  "abi": [
    {
      "inputs": [
        {
          "internalType": "address",
          "name": "_caseManager",
          "type": "address"
        },
        {
          "internalType": "address",
          "name": "_accessControl",
          "type": "address"
        }
      ],
      "stateMutability": "nonpayable",
      "type": "constructor"
    },
    {
      "inputs": [
        {
          "internalType": "uint256",
          "name": "caseId",
          "type": "uint256"
        }
      ],
      "name": "NoRewardConfigured",
      "type": "error"
    },
    {
      "inputs": [
        {
          "internalType": "address",
          "name": "caller",
          "type": "address"
        }
      ],
      "name": "NotAdmin",
      "type": "error"
    },
    {
      "inputs": [
        {
          "internalType": "address",
          "name": "caller",
          "type": "address"
        },
        {
          "internalType": "uint256",
          "name": "caseId",
          "type": "uint256"
        }
      ],
      "name": "OnlyCaseJournalist",
      "type": "error"
    },
    {
      "inputs": [
        {
          "internalType": "uint256",
          "name": "caseId",
          "type": "uint256"
        }
      ],
      "name": "RewardAlreadyApproved",
      "type": "error"
    },
    {
      "inputs": [
        {
          "internalType": "uint256",
          "name": "caseId",
          "type": "uint256"
        }
      ],
      "name": "RewardAlreadyPaid",
      "type": "error"
    },
    {
      "inputs": [
        {
          "internalType": "bytes32",
          "name": "handle",
          "type": "bytes32"
        },
        {
          "internalType": "address",
          "name": "sender",
          "type": "address"
        }
      ],
      "name": "SenderNotAllowedToUseHandle",
      "type": "error"
    },
    {
      "inputs": [],
      "name": "ZamaProtocolUnsupported",
      "type": "error"
    },
    {
      "anonymous": false,
      "inputs": [
        {
          "indexed": true,
          "internalType": "uint256",
          "name": "caseId",
          "type": "uint256"
        }
      ],
      "name": "RewardApproved",
      "type": "event"
    },
    {
      "anonymous": false,
      "inputs": [
        {
          "indexed": true,
          "internalType": "uint256",
          "name": "caseId",
          "type": "uint256"
        },
        {
          "indexed": true,
          "internalType": "address",
          "name": "whistleblower",
          "type": "address"
        },
        {
          "indexed": false,
          "internalType": "uint256",
          "name": "amount",
          "type": "uint256"
        }
      ],
      "name": "RewardDistributed",
      "type": "event"
    },
    {
      "inputs": [],
      "name": "accessControl",
      "outputs": [
        {
          "internalType": "contract IAccessControlManager",
          "name": "",
          "type": "address"
        }
      ],
      "stateMutability": "view",
      "type": "function"
    },
    {
      "inputs": [
        {
          "internalType": "uint256",
          "name": "caseId",
          "type": "uint256"
        },
        {
          "internalType": "externalEuint256",
          "name": "encryptedAmount",
          "type": "bytes32"
        },
        {
          "internalType": "bytes",
          "name": "inputProof",
          "type": "bytes"
        }
      ],
      "name": "approveReward",
      "outputs": [],
      "stateMutability": "nonpayable",
      "type": "function"
    },
    {
      "inputs": [],
      "name": "caseManager",
      "outputs": [
        {
          "internalType": "contract IWhisperCaseManager",
          "name": "",
          "type": "address"
        }
      ],
      "stateMutability": "view",
      "type": "function"
    },
    {
      "inputs": [],
      "name": "confidentialProtocolId",
      "outputs": [
        {
          "internalType": "uint256",
          "name": "",
          "type": "uint256"
        }
      ],
      "stateMutability": "view",
      "type": "function"
    },
    {
      "inputs": [
        {
          "internalType": "uint256",
          "name": "caseId",
          "type": "uint256"
        },
        {
          "internalType": "address",
          "name": "whistleblower",
          "type": "address"
        }
      ],
      "name": "distributeReward",
      "outputs": [],
      "stateMutability": "nonpayable",
      "type": "function"
    },
    {
      "inputs": [
        {
          "internalType": "uint256",
          "name": "",
          "type": "uint256"
        }
      ],
      "name": "rewards",
      "outputs": [
        {
          "internalType": "uint256",
          "name": "caseId",
          "type": "uint256"
        },
        {
          "internalType": "euint256",
          "name": "encryptedAmount",
          "type": "bytes32"
        },
        {
          "internalType": "bool",
          "name": "approved",
          "type": "bool"
        },
        {
          "internalType": "bool",
          "name": "paid",
          "type": "bool"
        }
      ],
      "stateMutability": "view",
      "type": "function"
    },
    {
      "inputs": [
        {
          "internalType": "address",
          "name": "_stats",
          "type": "address"
        }
      ],
      "name": "setStats",
      "outputs": [],
      "stateMutability": "nonpayable",
      "type": "function"
    },
    {
      "inputs": [],
      "name": "stats",
      "outputs": [
        {
          "internalType": "contract IWhisperStats",
          "name": "",
          "type": "address"
        }
      ],
      "stateMutability": "view",
      "type": "function"
    }
  ],
  "bytecode": "0x60c060405234801561000f575f5ffd5b5060405161113238038061113283398101604081905261002e916102c3565b6100e26100396100f9565b80517f9e7b61f58c47dc699ac88507c4f5bb9f121c03808c5676a8078fe583e464970080546001600160a01b03199081166001600160a01b039384161790915560208301517f9e7b61f58c47dc699ac88507c4f5bb9f121c03808c5676a8078fe583e46497018054831691841691909117905560408301517f9e7b61f58c47dc699ac88507c4f5bb9f121c03808c5676a8078fe583e46497028054909216921691909117905550565b6001600160a01b039182166080521660a0526102f4565b604080516060810182525f808252602082018190529181019190915246600103610192575060408051606080820183525f8083526020808401829052928401528251908101835273ca2e8f1f656cd25c01f05d0b243ab1ecd4a8ffb6815273d82385dada1ae3e969447f20a3164f6213100e75918101919091527377627828a55156b04ac0dc0eb30467f1a552bb039181019190915290565b4662aa36a703610211575060408051606080820183525f8083526020808401829052928401528251908101835273f0ffdc93b7e186bc2f8cb3daa75d86d1930a433d81527392c920834ec8941d2c77d188936e1f7a6f49c1279181019190915273be0e383937d564d7ff0bc3b46c51f0bf8d5c311a9181019190915290565b46617a690361028f575060408051606080820183525f808352602080840182905292840152825190810183527350157cffd6bbfa2dece204a89ec419c23ef5755d815273e3a9105a3a932253a70f126eb1e3b589c643dd249181019190915273901f8942346f7ab3a01f6d7613119bca447bb0309181019190915290565b6040516373cac13b60e01b815260040160405180910390fd5b80516001600160a01b03811681146102be575f5ffd5b919050565b5f5f604083850312156102d4575f5ffd5b6102dd836102a8565b91506102eb602084016102a8565b90509250929050565b60805160a051610e0a6103285f395f8181608e0152818161041c01526105e401525f818160d201526103790152610e0a5ff3fe608060405234801561000f575f5ffd5b5060043610610085575f3560e01c80639c93c96c116100585780639c93c96c1461011f578063d80528ae14610132578063d8d2317c14610144578063f301af4214610157575f5ffd5b806313007d55146100895780633eb84530146100cd57806343bcc29b146100f45780638927b03014610109575b5f5ffd5b6100b07f000000000000000000000000000000000000000000000000000000000000000081565b6040516001600160a01b0390911681526020015b60405180910390f35b6100b07f000000000000000000000000000000000000000000000000000000000000000081565b610107610102366004610a90565b6101b8565b005b61011161034d565b6040519081526020016100c4565b61010761012d366004610abe565b61035b565b5f546100b0906001600160a01b031681565b610107610152366004610b3a565b6105cf565b610190610165366004610b5c565b600160208190525f918252604090912080549181015460029091015460ff8082169161010090041684565b60408051948552602085019390935290151591830191909152151560608201526080016100c4565b5f828152600160205260409020600281015460ff166101f257604051638217057560e01b8152600481018490526024015b60405180910390fd5b6002810154610100900460ff16156102205760405163447fb60960e11b8152600481018490526024016101e9565b60028101805461ff0019166101001790555f546001600160a01b031615610302575f546040516316a1fc3b60e11b81526001600160a01b0384811660048301526103e8602483015290911690632d43f876906044015f604051808303815f87803b15801561028c575f5ffd5b505af115801561029e573d5f5f3e3d5ffd5b50505f5460405163af38432d60e01b81523360048201526103e860248201526001600160a01b03909116925063af38432d91506044015f604051808303815f87803b1580156102eb575f5ffd5b505af11580156102fd573d5f5f3e3d5ffd5b505050505b816001600160a01b0316837fab7542bafced3da2d8c881cb2dd1de859fac7c20d3650d2902ad389a64e088836103e860405161034091815260200190565b60405180910390a3505050565b5f6103566106ad565b905090565b83156104b857604051630152342160e71b8152600481018590525f907f00000000000000000000000000000000000000000000000000000000000000006001600160a01b03169063a91a1080906024015f60405180830381865afa1580156103c5573d5f5f3e3d5ffd5b505050506040513d5f823e601f3d908101601f191682016040526103ec9190810190610c5b565b60208101519091506001600160a01b0316331480159061048f5750604051630935e01b60e21b81523360048201527f00000000000000000000000000000000000000000000000000000000000000006001600160a01b0316906324d7806c90602401602060405180830381865afa158015610469573d5f5f3e3d5ffd5b505050506040513d601f19601f8201168201806040525081019061048d9190610d3f565b155b156104b657604051639b49bd6960e01b8152336004820152602481018690526044016101e9565b505b5f8481526001602052604090206002015460ff16156104ed5760405163224bcbd960e21b8152600481018590526024016101e9565b5f61052d8484848080601f0160208091040260200160405190810160405280939291908181526020018383808284375f920191909152506106e192505050565b905061053881610750565b5060408051608081018252868152602080820184815260018385018181525f606086018181528c825294839052868120955186559251918501919091555160029093018054925115156101000261ff00199415159490941661ffff1990931692909217929092179055905186917fd279c96299c33ca27f3533f82bc77441dc63328f93848b0275600bd9aed1667091a25050505050565b604051630935e01b60e21b81523360048201527f00000000000000000000000000000000000000000000000000000000000000006001600160a01b0316906324d7806c90602401602060405180830381865afa158015610631573d5f5f3e3d5ffd5b505050506040513d601f19601f820116820180604052508101906106559190610d3f565b61067457604051630bd4212160e11b81523360048201526024016101e9565b5f80547fffffffffffffffffffffffff0000000000000000000000000000000000000000166001600160a01b0392909216919091179055565b5f466001036106bc5750600190565b4662aa36a7036106cd575061271190565b46617a69036106dc57505f1990565b505f90565b5f81515f146106fd576106f683836008610770565b905061074a565b825f8190036107175761070f5f610890565b91505061074a565b610721813361089c565b61074757604051630276b5d960e01b8152600481018290523360248201526044016101e9565b90505b92915050565b5f816107625761075f5f610890565b91505b61076c823061093b565b5090565b7f9e7b61f58c47dc699ac88507c4f5bb9f121c03808c5676a8078fe583e46497015460405163045fc19560e11b81525f917f9e7b61f58c47dc699ac88507c4f5bb9f121c03808c5676a8078fe583e4649700916001600160a01b03909116906308bf832a906107e9908890339089908990600401610d78565b6020604051808303815f875af1158015610805573d5f5f3e3d5ffd5b505050506040513d601f19601f820116820180604052508101906108299190610dd2565b8154604051630f8e573b60e21b8152600481018390523360248201529193506001600160a01b031690633e395cec906044015f604051808303815f87803b158015610872575f5ffd5b505af1158015610884573d5f5f3e3d5ffd5b50505050509392505050565b5f61074a8260086109c4565b5f807f9e7b61f58c47dc699ac88507c4f5bb9f121c03808c5676a8078fe583e464970080546040516382027b6d60e01b8152600481018790526001600160a01b0386811660248301529293509116906382027b6d90604401602060405180830381865afa15801561090f573d5f5f3e3d5ffd5b505050506040513d601f19601f820116820180604052508101906109339190610d3f565b949350505050565b5f7f9e7b61f58c47dc699ac88507c4f5bb9f121c03808c5676a8078fe583e46497008054604051635ca4b5b160e11b8152600481018690526001600160a01b03858116602483015292935091169063b9496b62906044015f604051808303815f87803b1580156109a9575f5ffd5b505af11580156109bb573d5f5f3e3d5ffd5b50505050505050565b7f9e7b61f58c47dc699ac88507c4f5bb9f121c03808c5676a8078fe583e464970154604051639cd07acb60e01b81525f917f9e7b61f58c47dc699ac88507c4f5bb9f121c03808c5676a8078fe583e4649700916001600160a01b0390911690639cd07acb90610a399087908790600401610de9565b6020604051808303815f875af1158015610a55573d5f5f3e3d5ffd5b505050506040513d601f19601f820116820180604052508101906109339190610dd2565b6001600160a01b0381168114610a8d575f5ffd5b50565b5f5f60408385031215610aa1575f5ffd5b823591506020830135610ab381610a79565b809150509250929050565b5f5f5f5f60608587031215610ad1575f5ffd5b8435935060208501359250604085013567ffffffffffffffff811115610af5575f5ffd5b8501601f81018713610b05575f5ffd5b803567ffffffffffffffff811115610b1b575f5ffd5b876020828401011115610b2c575f5ffd5b949793965060200194505050565b5f60208284031215610b4a575f5ffd5b8135610b5581610a79565b9392505050565b5f60208284031215610b6c575f5ffd5b5035919050565b634e487b7160e01b5f52604160045260245ffd5b604051610100810167ffffffffffffffff81118282101715610bab57610bab610b73565b60405290565b8051610bbc81610a79565b919050565b5f82601f830112610bd0575f5ffd5b815167ffffffffffffffff811115610bea57610bea610b73565b604051601f8201601f19908116603f0116810167ffffffffffffffff81118282101715610c1957610c19610b73565b604052818152838201602001851015610c30575f5ffd5b8160208501602083015e5f918101602001919091529392505050565b80518015158114610bbc575f5ffd5b5f60208284031215610c6b575f5ffd5b815167ffffffffffffffff811115610c81575f5ffd5b82016101008185031215610c93575f5ffd5b610c9b610b87565b81518152610cab60208301610bb1565b602082015260408281015190820152606082015167ffffffffffffffff811115610cd3575f5ffd5b610cdf86828501610bc1565b606083015250608082015167ffffffffffffffff811115610cfe575f5ffd5b610d0a86828501610bc1565b608083015250610d1c60a08301610c4c565b60a082015260c0828101519082015260e091820151918101919091529392505050565b5f60208284031215610d4f575f5ffd5b610b5582610c4c565b60548110610d7457634e487b7160e01b5f52602160045260245ffd5b9052565b8481526001600160a01b0384166020820152608060408201525f8351806080840152806020860160a085015e5f60a0828501015260a0601f19601f830116840101915050610dc96060830184610d58565b95945050505050565b5f60208284031215610de2575f5ffd5b5051919050565b82815260408101610b556020830184610d5856fea164736f6c634300081b000a",
  "linkReferences": {},
  "deployedLinkReferences": {}
}