{
  "_format": "hh-sol-artifact-1",
  "contractName": "WhisperCaseManager",
  "sourceName": "contracts/core/WhisperCaseManager.sol",
  "abi": [
    {
      "inputs": [
        {
          "internalType": "address",
          "name": "_accessControl",
          "type": "address"
        }
      ],
      "stateMutability": "nonpayable",
      "type": "constructor"
    },
    {
      "inputs": [
        {
          "internalType": "uint256",
          "name": "caseId",
          "type": "uint256"
        }
      ],
      "name": "CaseNotFound",
      "type": "error"
    },
    {
      "inputs": [
        {
          "internalType": "address",
          "name": "caller",
          "type": "address"
        }
      ],
      "name": "NotAdmin",
      "type": "error"
    },
    {
      "inputs": [
        {
          "internalType": "address",
          "name": "caller",
          "type": "address"
        }
      ],
      "name": "NotJournalist",
      "type": "error"
    },
    {
      "inputs": [
        {
          "internalType": "address",
          "name": "caller",
          "type": "address"
        },
        {
          "internalType": "uint256",
          "name": "caseId",
          "type": "uint256"
        }
      ],
      "name": "OnlyCaseJournalist",
      "type": "error"
    },
    {
      "inputs": [
        {
          "internalType": "bytes32",
          "name": "handle",
          "type": "bytes32"
        },
        {
          "internalType": "address",
          "name": "sender",
          "type": "address"
        }
      ],
      "name": "SenderNotAllowedToUseHandle",
      "type": "error"
    },
    {
      "inputs": [
        {
          "internalType": "address",
          "name": "caller",
          "type": "address"
        }
      ],
      "name": "Unauthorized",
      "type": "error"
    },
    {
      "inputs": [],
      "name": "ZamaProtocolUnsupported",
      "type": "error"
    },
    {
      "anonymous": false,
      "inputs": [
        {
          "indexed": true,
          "internalType": "uint256",
          "name": "caseId",
          "type": "uint256"
        }
      ],
      "name": "CaseClosed",
      "type": "event"
    },
    {
      "anonymous": false,
      "inputs": [
        {
          "indexed": true,
          "internalType": "uint256",
          "name": "caseId",
          "type": "uint256"
        },
        {
          "indexed": true,
          "internalType": "address",
          "name": "journalist",
          "type": "address"
        },
        {
          "indexed": false,
          "internalType": "string",
          "name": "title",
          "type": "string"
        }
      ],
      "name": "CaseCreated",
      "type": "event"
    },
    {
      "inputs": [],
      "name": "accessControl",
      "outputs": [
        {
          "internalType": "contract IAccessControlManager",
          "name": "",
          "type": "address"
        }
      ],
      "stateMutability": "view",
      "type": "function"
    },
    {
      "inputs": [
        {
          "internalType": "uint256",
          "name": "",
          "type": "uint256"
        }
      ],
      "name": "cases",
      "outputs": [
        {
          "internalType": "uint256",
          "name": "caseId",
          "type": "uint256"
        },
        {
          "internalType": "address",
          "name": "journalist",
          "type": "address"
        },
        {
          "internalType": "euint256",
          "name": "encryptedJournalistName",
          "type": "bytes32"
        },
        {
          "internalType": "string",
          "name": "title",
          "type": "string"
        },
        {
          "internalType": "string",
          "name": "description",
          "type": "string"
        },
        {
          "internalType": "string",
          "name": "whisperBrief",
          "type": "string"
        },
        {
          "internalType": "string",
          "name": "status",
          "type": "string"
        },
        {
          "internalType": "string",
          "name": "priority",
          "type": "string"
        },
        {
          "internalType": "uint256",
          "name": "prizePool",
          "type": "uint256"
        },
        {
          "internalType": "bool",
          "name": "isOpen",
          "type": "bool"
        },
        {
          "internalType": "uint256",
          "name": "createdAt",
          "type": "uint256"
        },
        {
          "internalType": "uint256",
          "name": "whisperCount",
          "type": "uint256"
        }
      ],
      "stateMutability": "view",
      "type": "function"
    },
    {
      "inputs": [
        {
          "internalType": "uint256",
          "name": "caseId",
          "type": "uint256"
        }
      ],
      "name": "closeCase",
      "outputs": [],
      "stateMutability": "nonpayable",
      "type": "function"
    },
    {
      "inputs": [],
      "name": "confidentialProtocolId",
      "outputs": [
        {
          "internalType": "uint256",
          "name": "",
          "type": "uint256"
        }
      ],
      "stateMutability": "view",
      "type": "function"
    },
    {
      "inputs": [
        {
          "internalType": "string",
          "name": "title",
          "type": "string"
        },
        {
          "internalType": "string",
          "name": "description",
          "type": "string"
        },
        {
          "internalType": "string",
          "name": "whisperBrief",
          "type": "string"
        },
        {
          "internalType": "string",
          "name": "status",
          "type": "string"
        },
        {
          "internalType": "string",
          "name": "priority",
          "type": "string"
        },
        {
          "internalType": "string[]",
          "name": "tags",
          "type": "string[]"
        },
        {
          "internalType": "externalEuint256",
          "name": "encryptedName",
          "type": "bytes32"
        },
        {
          "internalType": "bytes",
          "name": "inputProof",
          "type": "bytes"
        }
      ],
      "name": "createCase",
      "outputs": [
        {
          "internalType": "uint256",
          "name": "",
          "type": "uint256"
        }
      ],
      "stateMutability": "payable",
      "type": "function"
    },
    {
      "inputs": [
        {
          "internalType": "uint256",
          "name": "caseId",
          "type": "uint256"
        }
      ],
      "name": "getCase",
      "outputs": [
        {
          "components": [
            {
              "internalType": "uint256",
              "name": "caseId",
              "type": "uint256"
            },
            {
              "internalType": "address",
              "name": "journalist",
              "type": "address"
            },
            {
              "internalType": "euint256",
              "name": "encryptedJournalistName",
              "type": "bytes32"
            },
            {
              "internalType": "string",
              "name": "title",
              "type": "string"
            },
            {
              "internalType": "string",
              "name": "description",
              "type": "string"
            },
            {
              "internalType": "string",
              "name": "whisperBrief",
              "type": "string"
            },
            {
              "internalType": "string",
              "name": "status",
              "type": "string"
            },
            {
              "internalType": "string",
              "name": "priority",
              "type": "string"
            },
            {
              "internalType": "string[]",
              "name": "tags",
              "type": "string[]"
            },
            {
              "internalType": "uint256",
              "name": "prizePool",
              "type": "uint256"
            },
            {
              "internalType": "bool",
              "name": "isOpen",
              "type": "bool"
            },
            {
              "internalType": "uint256",
              "name": "createdAt",
              "type": "uint256"
            },
            {
              "internalType": "uint256",
              "name": "whisperCount",
              "type": "uint256"
            }
          ],
          "internalType": "struct IWhisperCaseManager.Case",
          "name": "",
          "type": "tuple"
        }
      ],
      "stateMutability": "view",
      "type": "function"
    },
    {
      "inputs": [
        {
          "internalType": "uint256",
          "name": "caseId",
          "type": "uint256"
        }
      ],
      "name": "incrementWhisperCount",
      "outputs": [],
      "stateMutability": "nonpayable",
      "type": "function"
    },
    {
      "inputs": [],
      "name": "nextCaseId",
      "outputs": [
        {
          "internalType": "uint256",
          "name": "",
          "type": "uint256"
        }
      ],
      "stateMutability": "view",
      "type": "function"
    },
    {
      "inputs": [
        {
          "internalType": "address",
          "name": "_stats",
          "type": "address"
        }
      ],
      "name": "setStats",
      "outputs": [],
      "stateMutability": "nonpayable",
      "type": "function"
    },
    {
      "inputs": [
        {
          "internalType": "address",
          "name": "_vault",
          "type": "address"
        }
      ],
      "name": "setVault",
      "outputs": [],
      "stateMutability": "nonpayable",
      "type": "function"
    },
    {
      "inputs": [],
      "name": "stats",
      "outputs": [
        {
          "internalType": "contract IWhisperStats",
          "name": "",
          "type": "address"
        }
      ],
      "stateMutability": "view",
      "type": "function"
    },
    {
      "inputs": [],
      "name": "vault",
      "outputs": [
        {
          "internalType": "address",
          "name": "",
          "type": "address"
        }
      ],
      "stateMutability": "view",
      "type": "function"
    }
  ],
  "bytecode": "0x60a06040523461028b57604051601f611c5b38819003918201601f19168301916001600160401b0383118484101761028f5780849260209460405283398101031261028b57516001600160a01b0381169081900361028b5761005f6102c2565b50466001036101a7576100706102c2565b506100796102a3565b73ca2e8f1f656cd25c01f05d0b243ab1ecd4a8ffb6815273d82385dada1ae3e969447f20a3164f6213100e7560208201527377627828a55156b04ac0dc0eb30467f1a552bb0360408201525b80517f9e7b61f58c47dc699ac88507c4f5bb9f121c03808c5676a8078fe583e464970080546001600160a01b039283166001600160a01b03199182161790915560208301517f9e7b61f58c47dc699ac88507c4f5bb9f121c03808c5676a8078fe583e464970180549184169183169190911790556040928301517f9e7b61f58c47dc699ac88507c4f5bb9f121c03808c5676a8078fe583e46497028054919093169116179055608091909152600180555161197e90816102dd82396080518181816102280152818161067e015281816107c3015281816109fd01526114870152f35b4662aa36a703610212576101b96102c2565b506101c26102a3565b73f0ffdc93b7e186bc2f8cb3daa75d86d1930a433d81527392c920834ec8941d2c77d188936e1f7a6f49c127602082015273be0e383937d564d7ff0bc3b46c51f0bf8d5c311a60408201526100c5565b46617a690361027c576102236102c2565b5061022c6102a3565b7350157cffd6bbfa2dece204a89ec419c23ef5755d815273e3a9105a3a932253a70f126eb1e3b589c643dd24602082015273901f8942346f7ab3a01f6d7613119bca447bb03060408201526100c5565b6373cac13b60e01b5f5260045ffd5b5f80fd5b634e487b7160e01b5f52604160045260245ffd5b60405190606082016001600160401b0381118382101761028f57604052565b6102ca6102a3565b905f82525f60208301525f604083015256fe6080806040526004361015610012575f80fd5b5f905f3560e01c90816313007d551461146a575080631f21ad3d146108b957806326fe564c146108435780633ffad9121461071a5780636350eae8146106fc5780636817031b1461063d5780638927b0301461061a578063a91a1080146102fc578063d80528ae146102d6578063d8d2317c146101e7578063f09790dd146100cb5763fbfa77cf146100a2575f80fd5b346100c857806003193601126100c85760206001600160a01b0360035416604051908152f35b80fd5b50346100c85760203660031901126100c8576004358152600260205260409020805460018201546001600160a01b03169160028101546003820161010e90611588565b9161011b60048201611588565b9261012860058301611588565b61013460068401611588565b61014060078501611588565b91600985015496600a86015460ff1694600b87015496600c0154976040519b8c9b8c5260208c015260408b015260608a0161018090526101808a01610184916114d9565b89810360808b0152610195916114d9565b88810360a08a01526101a6916114d9565b87810360c08901526101b7916114d9565b86810360e08801526101c8916114d9565b9361010086015215156101208501526101408401526101608301520390f35b50346100c85760203660031901126100c8576004356001600160a01b0381168091036102d257604051630935e01b60e21b81523360048201526020816024817f00000000000000000000000000000000000000000000000000000000000000006001600160a01b03165afa9081156102c7578391610298575b50156102855773ffffffffffffffffffffffffffffffffffffffff1982541617815580f35b630bd4212160e11b825233600452602482fd5b6102ba915060203d6020116102c0575b6102b28183611566565b810190611628565b5f610260565b503d6102a8565b6040513d85823e3d90fd5b5080fd5b50346100c857806003193601126100c8576001600160a01b036020915416604051908152f35b50346100c85760203660031901126100c857600435908060405161031f81611535565b8181528160208201528160408201526060810160609052608081016060905260a081016060905260c081016060905260e08101606090526101008101606090528161012082015281610140820152816101608201526101800152818152600260205260408120906040519161039383611535565b805483528260018201546001600160a01b031660208201908152600283015460408301908152600384016103c690611588565b606084019081526103d960048601611588565b608085019081526103ec60058701611588565b60a086019081529161040060068801611588565b60c087019081529361041460078901611588565b9560e08801968752600889019b8c5461042c816116a8565b9d6040519e8f9061043d9082611566565b828152602001908d5260208d208d915b8383106105e457505050509188999694929189989694926101008a019e8f52610180600c60098b01549a6101208d019b8c5261014060ff600a830154169d019c15158d52610160600b8201549e019d8e5201549c019b8c528d51156105cf5750604051809d60208252519060200152516001600160a01b031660408d01525160608c01525160808b016101a090526101c08b016104e9916114d9565b90518a8203601f190160a08c015261050191906114d9565b9051898203601f190160c08b015261051991906114d9565b9051888203601f190160e08a015261053191906114d9565b9051878203601f190161010089015261054a91906114d9565b965194601f19878903016101208801528551808952602089018160051b8a016020019760200192905b8282106105a357505050508596505161014086015251151561016085015251610180840152516101a08301520390f35b909192976020806105c16001938e601f199082030186528c516114d9565b9a0192019201909291610573565b60016202e44560e61b03198d5260045260248cfd5b8192939495969798999a9b9c506020600192916106018493611588565b8152019201920190918e9b9a999897969594939261044d565b50346100c857806003193601126100c85760206106356118b2565b604051908152f35b50346100c85760203660031901126100c8576004356001600160a01b0381168091036102d257604051630935e01b60e21b81523360048201526020816024817f00000000000000000000000000000000000000000000000000000000000000006001600160a01b03165afa9081156102c75783916106dd575b50156102855773ffffffffffffffffffffffffffffffffffffffff19600354161760035580f35b6106f6915060203d6020116102c0576102b28183611566565b5f6106b6565b50346100c857806003193601126100c8576020600154604051908152f35b50346100c85760203660031901126100c85760043580825260026020526040822080541561082c576001600160a01b03600182015416331415806107a7575b61078f57600a01805460ff191690557f49975b326c379ec91b42c47db5f7d6ef053f2e769febd9dcb0126a0a07a1935d8280a280f35b639b49bd6960e01b8352336004526024829052604483fd5b50604051630935e01b60e21b81523360048201526020816024817f00000000000000000000000000000000000000000000000000000000000000006001600160a01b03165afa908115610821578491610802575b5015610759565b61081b915060203d6020116102c0576102b28183611566565b5f6107fb565b6040513d86823e3d90fd5b60016202e44560e61b031983526004829052602483fd5b50346100c85760203660031901126100c8576004356001600160a01b036003541633036108a657808252600260205260408220908154156108915750600c0161088c8154611640565b905580f35b60016202e44560e61b03198352600452602482fd5b63472511eb60e11b825233600452602482fd5b506101003660031901126114265760043567ffffffffffffffff8111611426576108e79036906004016114ab565b60243567ffffffffffffffff8111611426576109079036906004016114ab565b60449391933567ffffffffffffffff81116114265761092a9036906004016114ab565b9060643567ffffffffffffffff81116114265761094b9036906004016114ab565b60843567ffffffffffffffff81116114265761096b9036906004016114ab565b93909467ffffffffffffffff60a435116114265736602360a4350112156114265767ffffffffffffffff60a43560040135116114265736602460a4356004013560051b60a4350101116114265760e43567ffffffffffffffff8111611426576109d89036906004016114ab565b9a906040516351a16a1560e11b81523360048201526020816024816001600160a01b037f0000000000000000000000000000000000000000000000000000000000000000165afa90811561141b575f9161144b575b501561143857610a52610a5a91610a489d6001549e8f611640565b6001553691611662565b60c4356116d6565b9788801561142a575b6001600160a01b037f9e7b61f58c47dc699ac88507c4f5bb9f121c03808c5676a8078fe583e46497005416803b1561142657604051635ca4b5b160e11b815260048101929092523060248301525f908290604490829084905af1801561141b57611406575b5060405198610ad68a611535565b8c8a523360208b015260408a0152610aef368c8c611662565b60608a01523690610aff92611662565b60808801523690610b0f92611662565b60a08601523690610b1f92611662565b60c08401523690610b2f92611662565b60e0820152610b43600460a43501356116a8565b60405190610b519082611566565b60a43560048101358252602401602082015b602460a4356004013560051b60a435010182106113bf57505061010082015234610120820152600161014082015242610160820152846101808201528385526002602052604085209080518255600182016001600160a01b0360208301511673ffffffffffffffffffffffffffffffffffffffff1982541617905560408101516002830155606081015180519067ffffffffffffffff82116113ab57610c0c60038501546114fd565b601f8111611378575b50602090601f831160011461131057610c459291899183610f78575b50508160011b915f199060031b1c19161790565b60038301555b60048201608082015180519067ffffffffffffffff82116110b457610c7083546114fd565b601f81116112e0575b50602090601f831160011461127e57610ca892918a9183610f785750508160011b915f199060031b1c19161790565b90555b6005820160a082015180519067ffffffffffffffff82116110b457610cd083546114fd565b601f811161124e575b50602090601f83116001146111ec57610d0892918a9183610f785750508160011b915f199060031b1c19161790565b90555b6006820160c082015180519067ffffffffffffffff82116110b457610d3083546114fd565b601f81116111bc575b50602090601f831160011461115a57610d6892918a9183610f785750508160011b915f199060031b1c19161790565b90555b6007820160e082015180519067ffffffffffffffff82116110b457610d9083546114fd565b601f811161112a575b50602090601f83116001146110c857610dc892918a9183610f785750508160011b915f199060031b1c19161790565b90555b60088201610100820151908151916801000000000000000083116110b457815483835580841061103a575b506020019088526020882088915b838310610f08575050505061018081610120600c9301516009850155600a8401610140820151151560ff80198354169116179055610160810151600b85015501519101556001600160a01b0384541680610eb3575b507fe6f9e3dbd16686862dcfaa5b2873ddcb9f162189f212e96b32511b684ea93c918391602095846040519288845281898501526040840137604085830101526040813395601f80199101168101030190a3604051908152f35b8085913b156102d257819060246040518094819363cb86d94f60e01b83523360048401525af18015610efd5715610e5957610eef858092611566565b610ef9575f610e59565b8380fd5b6040513d87823e3d90fd5b805180519067ffffffffffffffff8211611026578b610f2785546114fd565b601f8111610feb575b50506020908c601f8411600114610f83578360019592946020948796610f699492610f785750508160011b915f199060031b1c19161790565b85555b01920192019190610e04565b015190505f80610c31565b9190601f198416868452828420935b818110610fd35750936020936001969387969383889510610fbb575b505050811b018555610f6c565b01515f1960f88460031b161c191690555f8080610fae565b92936020600181928786015181550195019301610f92565b60208287611015945220601f850160051c8101916020861061101c575b601f0160051c01906116c0565b8b5f610f30565b9091508190611008565b634e487b7160e01b8c52604160045260248cfd5b828a528360208b2091820191015b8181106110555750610df6565b808b611063600193546114fd565b80611071575b505001611048565b601f811184146110885750508b81555b8b5f611069565b83601f602084866110a3965220920160051c820191016116c0565b808c528b6020812081835555611081565b634e487b7160e01b89526041600452602489fd5b838a52818a209190601f1984168b5b81811061111257509084600195949392106110fa575b505050811b019055610dcb565b01515f1960f88460031b161c191690555f80806110ed565b929360206001819287860151815501950193016110d7565b61115490848b5260208b20601f850160051c8101916020861061101c57601f0160051c01906116c0565b5f610d99565b838a52818a209190601f1984168b5b8181106111a4575090846001959493921061118c575b505050811b019055610d6b565b01515f1960f88460031b161c191690555f808061117f565b92936020600181928786015181550195019301611169565b6111e690848b5260208b20601f850160051c8101916020861061101c57601f0160051c01906116c0565b5f610d39565b838a52818a209190601f1984168b5b818110611236575090846001959493921061121e575b505050811b019055610d0b565b01515f1960f88460031b161c191690555f8080611211565b929360206001819287860151815501950193016111fb565b61127890848b5260208b20601f850160051c8101916020861061101c57601f0160051c01906116c0565b5f610cd9565b838a52818a209190601f1984168b5b8181106112c857509084600195949392106112b0575b505050811b019055610cab565b01515f1960f88460031b161c191690555f80806112a3565b9293602060018192878601518155019501930161128d565b61130a90848b5260208b20601f850160051c8101916020861061101c57601f0160051c01906116c0565b5f610c79565b6003850189528189209190601f1984168a5b8181106113605750908460019594939210611348575b505050811b016003830155610c4b565b01515f1960f88460031b161c191690555f8080611338565b92936020600181928786015181550195019301611322565b6113a590600386018a5260208a20601f850160051c8101916020861061101c57601f0160051c01906116c0565b5f610c15565b634e487b7160e01b88526041600452602488fd5b813567ffffffffffffffff81116114025760a4350136604382011215611402576020916113f783923690604460248201359101611662565b815201910190610b63565b8880fd5b611413919d505f90611566565b5f9b5f610ac8565b6040513d5f823e3d90fd5b5f80fd5b506114336118e1565b610a63565b6310d6993d60e31b5f523360045260245ffd5b611464915060203d6020116102c0576102b28183611566565b5f610a2d565b34611426575f366003190112611426576020906001600160a01b037f0000000000000000000000000000000000000000000000000000000000000000168152f35b9181601f840112156114265782359167ffffffffffffffff8311611426576020838186019501011161142657565b805180835260209291819084018484015e5f828201840152601f01601f1916010190565b90600182811c9216801561152b575b602083101461151757565b634e487b7160e01b5f52602260045260245ffd5b91607f169161150c565b6101a0810190811067ffffffffffffffff82111761155257604052565b634e487b7160e01b5f52604160045260245ffd5b90601f8019910116810190811067ffffffffffffffff82111761155257604052565b9060405191825f82549261159b846114fd565b808452936001811690811561160657506001146115c2575b506115c092500383611566565b565b90505f9291925260205f20905f915b8183106115ea5750509060206115c0928201015f6115b3565b60209193508060019154838589010152019101909184926115d1565b9050602092506115c094915060ff191682840152151560051b8201015f6115b3565b90816020910312611426575180151581036114265790565b5f19811461164e5760010190565b634e487b7160e01b5f52601160045260245ffd5b92919267ffffffffffffffff8211611552576040519161168c601f8201601f191660200184611566565b829481845281830111611426578281602093845f960137010152565b67ffffffffffffffff81116115525760051b60200190565b8181106116cb575050565b5f81556001016116c0565b81519091901561180457602090611743926001600160a01b037f9e7b61f58c47dc699ac88507c4f5bb9f121c03808c5676a8078fe583e46497015416905f60405180968195829463045fc19560e11b845260048401523360248401526080604484015260848301906114d9565b6008606483015203925af190811561141b575f916117d2575b506001600160a01b037f9e7b61f58c47dc699ac88507c4f5bb9f121c03808c5676a8078fe583e46497005416803b1561142657604051630f8e573b60e21b815260048101839052336024820152905f908290604490829084905af1801561141b576117c5575090565b5f6117cf91611566565b90565b90506020813d6020116117fc575b816117ed60209383611566565b8101031261142657515f61175c565b3d91506117e0565b5080156118a9577f9e7b61f58c47dc699ac88507c4f5bb9f121c03808c5676a8078fe583e4649700546040516382027b6d60e01b81526004810183905233602482015290602090829060449082906001600160a01b03165afa90811561141b575f9161188a575b50156118745790565b630276b5d960e01b5f526004523360245260445ffd5b6118a3915060203d6020116102c0576102b28183611566565b5f61186b565b506117cf6118e1565b466001036118bf57600190565b4662aa36a7036118cf5761271190565b617a6946146118dc575f90565b5f1990565b7f9e7b61f58c47dc699ac88507c4f5bb9f121c03808c5676a8078fe583e464970154604051639cd07acb60e01b81525f6004820152906001600160a01b0316816044815f602094600860248401525af190811561141b575f91611942575090565b90506020813d602011611969575b8161195d60209383611566565b81010312611426575190565b3d915061195056fea164736f6c634300081b000a",
  "linkReferences": {},
  "deployedLinkReferences": {}
}