{
  "_format": "hh-sol-artifact-1",
  "contractName": "WhisperVault",
  "sourceName": "contracts/vault/WhisperVault.sol",
  "abi": [
    {
      "inputs": [
        {
          "internalType": "address",
          "name": "_caseManager",
          "type": "address"
        },
        {
          "internalType": "address",
          "name": "_accessControl",
          "type": "address"
        }
      ],
      "stateMutability": "nonpayable",
      "type": "constructor"
    },
    {
      "inputs": [
        {
          "internalType": "uint256",
          "name": "caseId",
          "type": "uint256"
        }
      ],
      "name": "CaseAlreadyClosed",
      "type": "error"
    },
    {
      "inputs": [
        {
          "internalType": "address",
          "name": "caller",
          "type": "address"
        }
      ],
      "name": "NotAdmin",
      "type": "error"
    },
    {
      "inputs": [
        {
          "internalType": "address",
          "name": "caller",
          "type": "address"
        },
        {
          "internalType": "uint256",
          "name": "caseId",
          "type": "uint256"
        }
      ],
      "name": "OnlyCaseJournalist",
      "type": "error"
    },
    {
      "inputs": [
        {
          "internalType": "bytes32",
          "name": "handle",
          "type": "bytes32"
        },
        {
          "internalType": "address",
          "name": "sender",
          "type": "address"
        }
      ],
      "name": "SenderNotAllowedToUseHandle",
      "type": "error"
    },
    {
      "inputs": [],
      "name": "ZamaProtocolUnsupported",
      "type": "error"
    },
    {
      "anonymous": false,
      "inputs": [
        {
          "indexed": true,
          "internalType": "uint256",
          "name": "caseId",
          "type": "uint256"
        },
        {
          "indexed": false,
          "internalType": "uint256",
          "name": "whisperIndex",
          "type": "uint256"
        },
        {
          "indexed": false,
          "internalType": "bytes32",
          "name": "submitterHandle",
          "type": "bytes32"
        }
      ],
      "name": "SubmitterRevealRequested",
      "type": "event"
    },
    {
      "anonymous": false,
      "inputs": [
        {
          "indexed": true,
          "internalType": "uint256",
          "name": "caseId",
          "type": "uint256"
        },
        {
          "indexed": false,
          "internalType": "uint256",
          "name": "whisperIndex",
          "type": "uint256"
        },
        {
          "indexed": false,
          "internalType": "bytes32",
          "name": "messageHandle",
          "type": "bytes32"
        }
      ],
      "name": "WhisperRevealRequested",
      "type": "event"
    },
    {
      "anonymous": false,
      "inputs": [
        {
          "indexed": true,
          "internalType": "uint256",
          "name": "caseId",
          "type": "uint256"
        },
        {
          "indexed": false,
          "internalType": "uint256",
          "name": "whisperIndex",
          "type": "uint256"
        }
      ],
      "name": "WhisperSubmitted",
      "type": "event"
    },
    {
      "inputs": [],
      "name": "accessControl",
      "outputs": [
        {
          "internalType": "contract IAccessControlManager",
          "name": "",
          "type": "address"
        }
      ],
      "stateMutability": "view",
      "type": "function"
    },
    {
      "inputs": [],
      "name": "caseManager",
      "outputs": [
        {
          "internalType": "contract IWhisperCaseManager",
          "name": "",
          "type": "address"
        }
      ],
      "stateMutability": "view",
      "type": "function"
    },
    {
      "inputs": [],
      "name": "confidentialProtocolId",
      "outputs": [
        {
          "internalType": "uint256",
          "name": "",
          "type": "uint256"
        }
      ],
      "stateMutability": "view",
      "type": "function"
    },
    {
      "inputs": [
        {
          "internalType": "uint256",
          "name": "caseId",
          "type": "uint256"
        }
      ],
      "name": "getWhisperCount",
      "outputs": [
        {
          "internalType": "uint256",
          "name": "",
          "type": "uint256"
        }
      ],
      "stateMutability": "view",
      "type": "function"
    },
    {
      "inputs": [
        {
          "internalType": "uint256",
          "name": "caseId",
          "type": "uint256"
        },
        {
          "internalType": "uint256",
          "name": "whisperIndex",
          "type": "uint256"
        }
      ],
      "name": "requestSubmitterReveal",
      "outputs": [],
      "stateMutability": "nonpayable",
      "type": "function"
    },
    {
      "inputs": [
        {
          "internalType": "uint256",
          "name": "caseId",
          "type": "uint256"
        },
        {
          "internalType": "uint256",
          "name": "whisperIndex",
          "type": "uint256"
        }
      ],
      "name": "requestWhisperReveal",
      "outputs": [],
      "stateMutability": "nonpayable",
      "type": "function"
    },
    {
      "inputs": [
        {
          "internalType": "address",
          "name": "_stats",
          "type": "address"
        }
      ],
      "name": "setStats",
      "outputs": [],
      "stateMutability": "nonpayable",
      "type": "function"
    },
    {
      "inputs": [],
      "name": "stats",
      "outputs": [
        {
          "internalType": "contract IWhisperStats",
          "name": "",
          "type": "address"
        }
      ],
      "stateMutability": "view",
      "type": "function"
    },
    {
      "inputs": [
        {
          "internalType": "uint256",
          "name": "caseId",
          "type": "uint256"
        },
        {
          "internalType": "externalEuint256",
          "name": "encryptedMessage",
          "type": "bytes32"
        },
        {
          "internalType": "externalEuint256",
          "name": "encryptedFileHash",
          "type": "bytes32"
        },
        {
          "internalType": "externalEaddress",
          "name": "encryptedSubmitter",
          "type": "bytes32"
        },
        {
          "internalType": "externalEuint8",
          "name": "priority",
          "type": "bytes32"
        },
        {
          "internalType": "bytes",
          "name": "inputProof",
          "type": "bytes"
        }
      ],
      "name": "submitWhisper",
      "outputs": [],
      "stateMutability": "nonpayable",
      "type": "function"
    }
  ],
  "bytecode": "0x60c060405234801561000f575f5ffd5b5060405161175a38038061175a83398101604081905261002e916102c3565b6100e26100396100f9565b80517f9e7b61f58c47dc699ac88507c4f5bb9f121c03808c5676a8078fe583e464970080546001600160a01b03199081166001600160a01b039384161790915560208301517f9e7b61f58c47dc699ac88507c4f5bb9f121c03808c5676a8078fe583e46497018054831691841691909117905560408301517f9e7b61f58c47dc699ac88507c4f5bb9f121c03808c5676a8078fe583e46497028054909216921691909117905550565b6001600160a01b039182166080521660a0526102f4565b604080516060810182525f808252602082018190529181019190915246600103610192575060408051606080820183525f8083526020808401829052928401528251908101835273ca2e8f1f656cd25c01f05d0b243ab1ecd4a8ffb6815273d82385dada1ae3e969447f20a3164f6213100e75918101919091527377627828a55156b04ac0dc0eb30467f1a552bb039181019190915290565b4662aa36a703610211575060408051606080820183525f8083526020808401829052928401528251908101835273f0ffdc93b7e186bc2f8cb3daa75d86d1930a433d81527392c920834ec8941d2c77d188936e1f7a6f49c1279181019190915273be0e383937d564d7ff0bc3b46c51f0bf8d5c311a9181019190915290565b46617a690361028f575060408051606080820183525f808352602080840182905292840152825190810183527350157cffd6bbfa2dece204a89ec419c23ef5755d815273e3a9105a3a932253a70f126eb1e3b589c643dd249181019190915273901f8942346f7ab3a01f6d7613119bca447bb0309181019190915290565b6040516373cac13b60e01b815260040160405180910390fd5b80516001600160a01b03811681146102be575f5ffd5b919050565b5f5f604083850312156102d4575f5ffd5b6102dd836102a8565b91506102eb602084016102a8565b90509250929050565b60805160a05161140e61034c5f395f818160bd015281816102640152818161031e0152818161084401526109ce01525f8181610101015281816101c10152818161045f0152818161050f015261092b015261140e5ff3fe608060405234801561000f575f5ffd5b506004361061009f575f3560e01c80638927b03011610072578063d8d2317c11610058578063d8d2317c1461015e578063de35858b14610171578063f91273dc14610184575f5ffd5b80638927b03014610136578063d80528ae1461014c575f5ffd5b80630a6f56d1146100a357806313007d55146100b85780633eb84530146100fc5780635b9801f914610123575b5f5ffd5b6100b66100b1366004610ff5565b6101a3565b005b6100df7f000000000000000000000000000000000000000000000000000000000000000081565b6040516001600160a01b0390911681526020015b60405180910390f35b6100df7f000000000000000000000000000000000000000000000000000000000000000081565b6100b6610131366004611015565b610441565b61013e610821565b6040519081526020016100f3565b5f546100df906001600160a01b031681565b6100b661016c3660046110c9565b61082f565b6100b661017f366004610ff5565b61090d565b61013e6101923660046110eb565b5f9081526001602052604090205490565b811561030957604051630152342160e71b8152600481018390525f907f00000000000000000000000000000000000000000000000000000000000000006001600160a01b03169063a91a1080906024015f60405180830381865afa15801561020d573d5f5f3e3d5ffd5b505050506040513d5f823e601f3d908101601f1916820160405261023491908101906111ea565b60208101519091506001600160a01b031633148015906102d75750604051630935e01b60e21b81523360048201527f00000000000000000000000000000000000000000000000000000000000000006001600160a01b0316906324d7806c90602401602060405180830381865afa1580156102b1573d5f5f3e3d5ffd5b505050506040513d601f19601f820116820180604052508101906102d591906112ce565b155b1561030357604051639b49bd6960e01b8152336004820152602481018490526044015b60405180910390fd5b506103ae565b604051630935e01b60e21b81523360048201527f00000000000000000000000000000000000000000000000000000000000000006001600160a01b0316906324d7806c90602401602060405180830381865afa15801561036b573d5f5f3e3d5ffd5b505050506040513d601f19601f8201168201806040525081019061038f91906112ce565b6103ae57604051630bd4212160e11b81523360048201526024016102fa565b5f8281526001602052604081208054839081106103cd576103cd6112e7565b905f5260205f20906006020190506103e88160030154610ae4565b506103f68160030154610b04565b6003820181905583907f12039ed4f1122dc80eac37bf15976b0901920fa9ad3a7cb4c5254c6ea315d0169084905b6040805192835260208301919091520160405180910390a2505050565b861561057057604051630152342160e71b8152600481018890525f907f00000000000000000000000000000000000000000000000000000000000000006001600160a01b03169063a91a1080906024015f60405180830381865afa1580156104ab573d5f5f3e3d5ffd5b505050506040513d5f823e601f3d908101601f191682016040526104d291908101906111ea565b90508060a001516104f9576040516330fec64b60e01b8152600481018990526024016102fa565b6040516309bf959360e21b8152600481018990527f00000000000000000000000000000000000000000000000000000000000000006001600160a01b0316906326fe564c906024015f604051808303815f87803b158015610558575f5ffd5b505af115801561056a573d5f5f3e3d5ffd5b50505050505b5f6105b08784848080601f0160208091040260200160405190810160405280939291908181526020018383808284375f92019190915250610b1f92505050565b90505f6105f28785858080601f0160208091040260200160405190810160405280939291908181526020018383808284375f92019190915250610b1f92505050565b90505f6106348786868080601f0160208091040260200160405190810160405280939291908181526020018383808284375f92019190915250610b8e92505050565b90505f6106768787878080601f0160208091040260200160405190810160405280939291908181526020018383808284375f92019190915250610bb592505050565b905061068184610bdc565b5061068b83610bdc565b5061069582610ae4565b5061069f81610beb565b5060015f8c81526020019081526020015f206040518060c001604052808d815260200186815260200185815260200184815260200183815260200142815250908060018154018082558091505060019003905f5260205f2090600602015f909190919091505f820151815f01556020820151816001015560408201518160020155606082015181600301556080820151816004015560a0820151816005015550505f6001600160a01b03165f5f9054906101000a90046001600160a01b03166001600160a01b0316146107c4575f546040516313dbae1160e11b81523360048201526001600160a01b03909116906327b75c22906024015f604051808303815f87803b1580156107ad575f5ffd5b505af11580156107bf573d5f5f3e3d5ffd5b505050505b5f8b8152600160208190526040909120548c917f5170b1540b431a51cf2b480457c1b0416efb68ec1a8c91b7041ac120106298de9161080391906112fb565b60405190815260200160405180910390a25050505050505050505050565b5f61082a610bfa565b905090565b604051630935e01b60e21b81523360048201527f00000000000000000000000000000000000000000000000000000000000000006001600160a01b0316906324d7806c90602401602060405180830381865afa158015610891573d5f5f3e3d5ffd5b505050506040513d601f19601f820116820180604052508101906108b591906112ce565b6108d457604051630bd4212160e11b81523360048201526024016102fa565b5f80547fffffffffffffffffffffffff0000000000000000000000000000000000000000166001600160a01b0392909216919091179055565b8115610a6a57604051630152342160e71b8152600481018390525f907f00000000000000000000000000000000000000000000000000000000000000006001600160a01b03169063a91a1080906024015f60405180830381865afa158015610977573d5f5f3e3d5ffd5b505050506040513d5f823e601f3d908101601f1916820160405261099e91908101906111ea565b60208101519091506001600160a01b03163314801590610a415750604051630935e01b60e21b81523360048201527f00000000000000000000000000000000000000000000000000000000000000006001600160a01b0316906324d7806c90602401602060405180830381865afa158015610a1b573d5f5f3e3d5ffd5b505050506040513d601f19601f82011682018060405250810190610a3f91906112ce565b155b15610a6857604051639b49bd6960e01b8152336004820152602481018490526044016102fa565b505b5f828152600160205260408120805483908110610a8957610a896112e7565b905f5260205f2090600602019050610aa48160010154610bdc565b50610ab28160010154610c2e565b6001820181905583907f4a6c8fd3d028e81de4b30fcdaa15209b2bf731270a2dfbb0e72728a6eadafeb8908490610424565b5f81610af657610af35f610c3d565b91505b610b008230610c52565b5090565b5f81610b1657610b135f610c3d565b91505b610b0082610cd9565b5f81515f14610b3b57610b3483836008610d6a565b9050610b88565b825f819003610b5557610b4d5f610e8a565b915050610b88565b610b5f8133610e96565b610b8557604051630276b5d960e01b8152600481018290523360248201526044016102fa565b90505b92915050565b5f81515f14610ba357610b3483836007610d6a565b825f819003610b5557610b4d5f610c3d565b5f81515f14610bca57610b3483836002610d6a565b825f819003610b5557610b4d5f610f35565b5f81610af657610af35f610e8a565b5f81610af657610af35f610f35565b5f46600103610c095750600190565b4662aa36a703610c1a575061271190565b46617a6903610c2957505f1990565b505f90565b5f81610b1657610b135f610e8a565b5f610b88826001600160a01b03166007610f40565b7f9e7b61f58c47dc699ac88507c4f5bb9f121c03808c5676a8078fe583e46497008054604051635ca4b5b160e11b8152600481018590526001600160a01b0384811660248301529091169063b9496b62906044015b5f604051808303815f87803b158015610cbe575f5ffd5b505af1158015610cd0573d5f5f3e3d5ffd5b50505050505050565b6040805160018082528183019092527f9e7b61f58c47dc699ac88507c4f5bb9f121c03808c5676a8078fe583e4649700915f91906020808301908036833701905050905082815f81518110610d3057610d306112e7565b60209081029190910101528154604051637d6e912360e11b81526001600160a01b039091169063fadd224690610ca790849060040161131a565b7f9e7b61f58c47dc699ac88507c4f5bb9f121c03808c5676a8078fe583e46497015460405163045fc19560e11b81525f917f9e7b61f58c47dc699ac88507c4f5bb9f121c03808c5676a8078fe583e4649700916001600160a01b03909116906308bf832a90610de390889033908990899060040161137c565b6020604051808303815f875af1158015610dff573d5f5f3e3d5ffd5b505050506040513d601f19601f82011682018060405250810190610e2391906113d6565b8154604051630f8e573b60e21b8152600481018390523360248201529193506001600160a01b031690633e395cec906044015f604051808303815f87803b158015610e6c575f5ffd5b505af1158015610e7e573d5f5f3e3d5ffd5b50505050509392505050565b5f610b88826008610f40565b5f807f9e7b61f58c47dc699ac88507c4f5bb9f121c03808c5676a8078fe583e464970080546040516382027b6d60e01b8152600481018790526001600160a01b0386811660248301529293509116906382027b6d90604401602060405180830381865afa158015610f09573d5f5f3e3d5ffd5b505050506040513d601f19601f82011682018060405250810190610f2d91906112ce565b949350505050565b5f610b888260ff1660025b7f9e7b61f58c47dc699ac88507c4f5bb9f121c03808c5676a8078fe583e464970154604051639cd07acb60e01b81525f917f9e7b61f58c47dc699ac88507c4f5bb9f121c03808c5676a8078fe583e4649700916001600160a01b0390911690639cd07acb90610fb590879087906004016113ed565b6020604051808303815f875af1158015610fd1573d5f5f3e3d5ffd5b505050506040513d601f19601f82011682018060405250810190610f2d91906113d6565b5f5f60408385031215611006575f5ffd5b50508035926020909101359150565b5f5f5f5f5f5f5f60c0888a03121561102b575f5ffd5b873596506020880135955060408801359450606088013593506080880135925060a088013567ffffffffffffffff811115611064575f5ffd5b8801601f81018a13611074575f5ffd5b803567ffffffffffffffff81111561108a575f5ffd5b8a602082840101111561109b575f5ffd5b602082019350809250505092959891949750929550565b6001600160a01b03811681146110c6575f5ffd5b50565b5f602082840312156110d9575f5ffd5b81356110e4816110b2565b9392505050565b5f602082840312156110fb575f5ffd5b5035919050565b634e487b7160e01b5f52604160045260245ffd5b604051610100810167ffffffffffffffff8111828210171561113a5761113a611102565b60405290565b805161114b816110b2565b919050565b5f82601f83011261115f575f5ffd5b815167ffffffffffffffff81111561117957611179611102565b604051601f8201601f19908116603f0116810167ffffffffffffffff811182821017156111a8576111a8611102565b6040528181528382016020018510156111bf575f5ffd5b8160208501602083015e5f918101602001919091529392505050565b8051801515811461114b575f5ffd5b5f602082840312156111fa575f5ffd5b815167ffffffffffffffff811115611210575f5ffd5b82016101008185031215611222575f5ffd5b61122a611116565b8151815261123a60208301611140565b602082015260408281015190820152606082015167ffffffffffffffff811115611262575f5ffd5b61126e86828501611150565b606083015250608082015167ffffffffffffffff81111561128d575f5ffd5b61129986828501611150565b6080830152506112ab60a083016111db565b60a082015260c0828101519082015260e091820151918101919091529392505050565b5f602082840312156112de575f5ffd5b6110e4826111db565b634e487b7160e01b5f52603260045260245ffd5b81810381811115610b8857634e487b7160e01b5f52601160045260245ffd5b602080825282518282018190525f918401906040840190835b81811015611351578351835260209384019390920191600101611333565b509095945050505050565b6054811061137857634e487b7160e01b5f52602160045260245ffd5b9052565b8481526001600160a01b0384166020820152608060408201525f8351806080840152806020860160a085015e5f60a0828501015260a0601f19601f8301168401019150506113cd606083018461135c565b95945050505050565b5f602082840312156113e6575f5ffd5b5051919050565b828152604081016110e4602083018461135c56fea164736f6c634300081b000a",
  "linkReferences": {},
  "deployedLinkReferences": {}
}