{
  "_format": "hh-sol-artifact-1",
  "contractName": "WhisperCaseManager",
  "sourceName": "contracts/core/WhisperCaseManager.sol",
  "abi": [
    {
      "inputs": [
        {
          "internalType": "address",
          "name": "_accessControl",
          "type": "address"
        }
      ],
      "stateMutability": "nonpayable",
      "type": "constructor"
    },
    {
      "inputs": [
        {
          "internalType": "uint256",
          "name": "caseId",
          "type": "uint256"
        }
      ],
      "name": "CaseNotFound",
      "type": "error"
    },
    {
      "inputs": [
        {
          "internalType": "address",
          "name": "caller",
          "type": "address"
        }
      ],
      "name": "NotAdmin",
      "type": "error"
    },
    {
      "inputs": [
        {
          "internalType": "address",
          "name": "caller",
          "type": "address"
        }
      ],
      "name": "NotJournalist",
      "type": "error"
    },
    {
      "inputs": [
        {
          "internalType": "address",
          "name": "caller",
          "type": "address"
        },
        {
          "internalType": "uint256",
          "name": "caseId",
          "type": "uint256"
        }
      ],
      "name": "OnlyCaseJournalist",
      "type": "error"
    },
    {
      "inputs": [
        {
          "internalType": "bytes32",
          "name": "handle",
          "type": "bytes32"
        },
        {
          "internalType": "address",
          "name": "sender",
          "type": "address"
        }
      ],
      "name": "SenderNotAllowedToUseHandle",
      "type": "error"
    },
    {
      "inputs": [
        {
          "internalType": "address",
          "name": "caller",
          "type": "address"
        }
      ],
      "name": "Unauthorized",
      "type": "error"
    },
    {
      "inputs": [],
      "name": "ZamaProtocolUnsupported",
      "type": "error"
    },
    {
      "anonymous": false,
      "inputs": [
        {
          "indexed": true,
          "internalType": "uint256",
          "name": "caseId",
          "type": "uint256"
        }
      ],
      "name": "CaseClosed",
      "type": "event"
    },
    {
      "anonymous": false,
      "inputs": [
        {
          "indexed": true,
          "internalType": "uint256",
          "name": "caseId",
          "type": "uint256"
        },
        {
          "indexed": true,
          "internalType": "address",
          "name": "journalist",
          "type": "address"
        },
        {
          "indexed": false,
          "internalType": "string",
          "name": "title",
          "type": "string"
        }
      ],
      "name": "CaseCreated",
      "type": "event"
    },
    {
      "inputs": [],
      "name": "accessControl",
      "outputs": [
        {
          "internalType": "contract IAccessControlManager",
          "name": "",
          "type": "address"
        }
      ],
      "stateMutability": "view",
      "type": "function"
    },
    {
      "inputs": [
        {
          "internalType": "uint256",
          "name": "",
          "type": "uint256"
        }
      ],
      "name": "cases",
      "outputs": [
        {
          "internalType": "uint256",
          "name": "caseId",
          "type": "uint256"
        },
        {
          "internalType": "address",
          "name": "journalist",
          "type": "address"
        },
        {
          "internalType": "euint256",
          "name": "encryptedJournalistName",
          "type": "bytes32"
        },
        {
          "internalType": "string",
          "name": "title",
          "type": "string"
        },
        {
          "internalType": "string",
          "name": "description",
          "type": "string"
        },
        {
          "internalType": "bool",
          "name": "isOpen",
          "type": "bool"
        },
        {
          "internalType": "uint256",
          "name": "createdAt",
          "type": "uint256"
        },
        {
          "internalType": "uint256",
          "name": "whisperCount",
          "type": "uint256"
        }
      ],
      "stateMutability": "view",
      "type": "function"
    },
    {
      "inputs": [
        {
          "internalType": "uint256",
          "name": "caseId",
          "type": "uint256"
        }
      ],
      "name": "closeCase",
      "outputs": [],
      "stateMutability": "nonpayable",
      "type": "function"
    },
    {
      "inputs": [],
      "name": "confidentialProtocolId",
      "outputs": [
        {
          "internalType": "uint256",
          "name": "",
          "type": "uint256"
        }
      ],
      "stateMutability": "view",
      "type": "function"
    },
    {
      "inputs": [
        {
          "internalType": "string",
          "name": "title",
          "type": "string"
        },
        {
          "internalType": "string",
          "name": "description",
          "type": "string"
        },
        {
          "internalType": "externalEuint256",
          "name": "encryptedName",
          "type": "bytes32"
        },
        {
          "internalType": "bytes",
          "name": "inputProof",
          "type": "bytes"
        }
      ],
      "name": "createCase",
      "outputs": [
        {
          "internalType": "uint256",
          "name": "",
          "type": "uint256"
        }
      ],
      "stateMutability": "nonpayable",
      "type": "function"
    },
    {
      "inputs": [
        {
          "internalType": "uint256",
          "name": "caseId",
          "type": "uint256"
        }
      ],
      "name": "getCase",
      "outputs": [
        {
          "components": [
            {
              "internalType": "uint256",
              "name": "caseId",
              "type": "uint256"
            },
            {
              "internalType": "address",
              "name": "journalist",
              "type": "address"
            },
            {
              "internalType": "euint256",
              "name": "encryptedJournalistName",
              "type": "bytes32"
            },
            {
              "internalType": "string",
              "name": "title",
              "type": "string"
            },
            {
              "internalType": "string",
              "name": "description",
              "type": "string"
            },
            {
              "internalType": "bool",
              "name": "isOpen",
              "type": "bool"
            },
            {
              "internalType": "uint256",
              "name": "createdAt",
              "type": "uint256"
            },
            {
              "internalType": "uint256",
              "name": "whisperCount",
              "type": "uint256"
            }
          ],
          "internalType": "struct IWhisperCaseManager.Case",
          "name": "",
          "type": "tuple"
        }
      ],
      "stateMutability": "view",
      "type": "function"
    },
    {
      "inputs": [
        {
          "internalType": "uint256",
          "name": "caseId",
          "type": "uint256"
        }
      ],
      "name": "incrementWhisperCount",
      "outputs": [],
      "stateMutability": "nonpayable",
      "type": "function"
    },
    {
      "inputs": [],
      "name": "nextCaseId",
      "outputs": [
        {
          "internalType": "uint256",
          "name": "",
          "type": "uint256"
        }
      ],
      "stateMutability": "view",
      "type": "function"
    },
    {
      "inputs": [
        {
          "internalType": "address",
          "name": "_stats",
          "type": "address"
        }
      ],
      "name": "setStats",
      "outputs": [],
      "stateMutability": "nonpayable",
      "type": "function"
    },
    {
      "inputs": [
        {
          "internalType": "address",
          "name": "_vault",
          "type": "address"
        }
      ],
      "name": "setVault",
      "outputs": [],
      "stateMutability": "nonpayable",
      "type": "function"
    },
    {
      "inputs": [],
      "name": "stats",
      "outputs": [
        {
          "internalType": "contract IWhisperStats",
          "name": "",
          "type": "address"
        }
      ],
      "stateMutability": "view",
      "type": "function"
    },
    {
      "inputs": [],
      "name": "vault",
      "outputs": [
        {
          "internalType": "address",
          "name": "",
          "type": "address"
        }
      ],
      "stateMutability": "view",
      "type": "function"
    }
  ],
  "bytecode": "0x60a060405234801561000f575f5ffd5b5060405161176538038061176583398101604081905261002e916102a6565b6100e26100396100f7565b80517f9e7b61f58c47dc699ac88507c4f5bb9f121c03808c5676a8078fe583e464970080546001600160a01b03199081166001600160a01b039384161790915560208301517f9e7b61f58c47dc699ac88507c4f5bb9f121c03808c5676a8078fe583e46497018054831691841691909117905560408301517f9e7b61f58c47dc699ac88507c4f5bb9f121c03808c5676a8078fe583e46497028054909216921691909117905550565b6001600160a01b0316608052600180556102d3565b604080516060810182525f808252602082018190529181019190915246600103610190575060408051606080820183525f8083526020808401829052928401528251908101835273ca2e8f1f656cd25c01f05d0b243ab1ecd4a8ffb6815273d82385dada1ae3e969447f20a3164f6213100e75918101919091527377627828a55156b04ac0dc0eb30467f1a552bb039181019190915290565b4662aa36a70361020f575060408051606080820183525f8083526020808401829052928401528251908101835273f0ffdc93b7e186bc2f8cb3daa75d86d1930a433d81527392c920834ec8941d2c77d188936e1f7a6f49c1279181019190915273be0e383937d564d7ff0bc3b46c51f0bf8d5c311a9181019190915290565b46617a690361028d575060408051606080820183525f808352602080840182905292840152825190810183527350157cffd6bbfa2dece204a89ec419c23ef5755d815273e3a9105a3a932253a70f126eb1e3b589c643dd249181019190915273901f8942346f7ab3a01f6d7613119bca447bb0309181019190915290565b6040516373cac13b60e01b815260040160405180910390fd5b5f602082840312156102b6575f5ffd5b81516001600160a01b03811681146102cc575f5ffd5b9392505050565b60805161145f6103065f395f818160d80152818161029b01528181610600015281816106e901526109ce015261145f5ff3fe608060405234801561000f575f5ffd5b50600436106100cf575f3560e01c80638927b0301161007d578063d8d2317c11610058578063d8d2317c146101b6578063f09790dd146101c9578063fbfa77cf146101f0575f5ffd5b80638927b0301461017c578063a91a108014610184578063d80528ae146101a4575f5ffd5b80633ffad912116100ad5780633ffad9121461014d5780636350eae8146101605780636817031b14610169575f5ffd5b806313007d55146100d357806326fe564c1461011757806334b250501461012c575b5f5ffd5b6100fa7f000000000000000000000000000000000000000000000000000000000000000081565b6040516001600160a01b0390911681526020015b60405180910390f35b61012a610125366004610fb3565b610203565b005b61013f61013a36600461100f565b610284565b60405190815260200161010e565b61012a61015b366004610fb3565b61059e565b61013f60015481565b61012a6101773660046110b7565b6106d4565b61013f6107a8565b610197610192366004610fb3565b6107b6565b60405161010e919061110b565b5f546100fa906001600160a01b031681565b61012a6101c43660046110b7565b6109b9565b6101dc6101d7366004610fb3565b610a8c565b60405161010e9897969594939291906111a2565b6003546100fa906001600160a01b031681565b6003546001600160a01b031633146102355760405163472511eb60e11b81523360048201526024015b60405180910390fd5b5f818152600260205260408120805490910361026a5760405160016202e44560e61b031981526004810183905260240161022c565b600781018054905f61027b83611204565b91905055505050565b6040516351a16a1560e11b81523360048201525f907f00000000000000000000000000000000000000000000000000000000000000006001600160a01b03169063a342d42a90602401602060405180830381865afa1580156102e8573d5f5f3e3d5ffd5b505050506040513d601f19601f8201168201806040525081019061030c9190611228565b61032b576040516310d6993d60e31b815233600482015260240161022c565b600180545f918261033b83611204565b9190505590505f6103818686868080601f0160208091040260200160405190810160405280939291908181526020018383808284375f92019190915250610be992505050565b905061038c81610c56565b50604051806101000160405280838152602001336001600160a01b031681526020018281526020018b8b8080601f0160208091040260200160405190810160405280939291908181526020018383808284375f92019190915250505090825250604080516020601f8c018190048102820181019092528a815291810191908b908b90819084018382808284375f9201829052509385525050600160208085018290524260408087019190915260609586018590528885526002808352948190208751815591870151928201805473ffffffffffffffffffffffffffffffffffffffff19166001600160a01b03909416939093179092559085015192810192909255509082015160038201906104a190826112df565b50608082015160048201906104b690826112df565b5060a082015160058201805460ff191691151591909117905560c0820151600682015560e0909101516007909101555f546001600160a01b03161561054d575f5460405163cb86d94f60e01b81523360048201526001600160a01b039091169063cb86d94f906024015f604051808303815f87803b158015610536575f5ffd5b505af1158015610548573d5f5f3e3d5ffd5b505050505b336001600160a01b0316827fe6f9e3dbd16686862dcfaa5b2873ddcb9f162189f212e96b32511b684ea93c918c8c60405161058992919061139a565b60405180910390a35098975050505050505050565b5f81815260026020526040812080549091036105d35760405160016202e44560e61b031981526004810183905260240161022c565b60018101546001600160a01b031633148015906106735750604051630935e01b60e21b81523360048201527f00000000000000000000000000000000000000000000000000000000000000006001600160a01b0316906324d7806c90602401602060405180830381865afa15801561064d573d5f5f3e3d5ffd5b505050506040513d601f19601f820116820180604052508101906106719190611228565b155b1561069a57604051639b49bd6960e01b81523360048201526024810183905260440161022c565b60058101805460ff1916905560405182907f49975b326c379ec91b42c47db5f7d6ef053f2e769febd9dcb0126a0a07a1935d905f90a25050565b604051630935e01b60e21b81523360048201527f00000000000000000000000000000000000000000000000000000000000000006001600160a01b0316906324d7806c90602401602060405180830381865afa158015610736573d5f5f3e3d5ffd5b505050506040513d601f19601f8201168201806040525081019061075a9190611228565b61077957604051630bd4212160e11b815233600482015260240161022c565b6003805473ffffffffffffffffffffffffffffffffffffffff19166001600160a01b0392909216919091179055565b5f6107b1610c76565b905090565b6108036040518061010001604052805f81526020015f6001600160a01b031681526020015f815260200160608152602001606081526020015f151581526020015f81526020015f81525090565b5f8281526002602081815260408084208151610100810183528154815260018201546001600160a01b03169381019390935292830154908201526003820180549192916060840191906108559061125b565b80601f01602080910402602001604051908101604052809291908181526020018280546108819061125b565b80156108cc5780601f106108a3576101008083540402835291602001916108cc565b820191905f5260205f20905b8154815290600101906020018083116108af57829003601f168201915b505050505081526020016004820180546108e59061125b565b80601f01602080910402602001604051908101604052809291908181526020018280546109119061125b565b801561095c5780601f106109335761010080835404028352916020019161095c565b820191905f5260205f20905b81548152906001019060200180831161093f57829003601f168201915b5050509183525050600582015460ff16151560208201526006820154604082015260079091015460609091015280519091505f036109b35760405160016202e44560e61b031981526004810184905260240161022c565b92915050565b604051630935e01b60e21b81523360048201527f00000000000000000000000000000000000000000000000000000000000000006001600160a01b0316906324d7806c90602401602060405180830381865afa158015610a1b573d5f5f3e3d5ffd5b505050506040513d601f19601f82011682018060405250810190610a3f9190611228565b610a5e57604051630bd4212160e11b815233600482015260240161022c565b5f805473ffffffffffffffffffffffffffffffffffffffff19166001600160a01b0392909216919091179055565b600260208190525f9182526040909120805460018201549282015460038301805492946001600160a01b0316939192610ac49061125b565b80601f0160208091040260200160405190810160405280929190818152602001828054610af09061125b565b8015610b3b5780601f10610b1257610100808354040283529160200191610b3b565b820191905f5260205f20905b815481529060010190602001808311610b1e57829003601f168201915b505050505090806004018054610b509061125b565b80601f0160208091040260200160405190810160405280929190818152602001828054610b7c9061125b565b8015610bc75780601f10610b9e57610100808354040283529160200191610bc7565b820191905f5260205f20905b815481529060010190602001808311610baa57829003601f168201915b5050505060058301546006840154600790940154929360ff9091169290915088565b5f81515f14610c0557610bfe83836008610caa565b90506109b3565b825f819003610c1f57610c175f610dca565b9150506109b3565b610c298133610dd6565b610c4f57604051630276b5d960e01b81526004810182905233602482015260440161022c565b9392505050565b5f81610c6857610c655f610dca565b91505b610c728230610e75565b5090565b5f46600103610c855750600190565b4662aa36a703610c96575061271190565b46617a6903610ca557505f1990565b505f90565b7f9e7b61f58c47dc699ac88507c4f5bb9f121c03808c5676a8078fe583e46497015460405163045fc19560e11b81525f917f9e7b61f58c47dc699ac88507c4f5bb9f121c03808c5676a8078fe583e4649700916001600160a01b03909116906308bf832a90610d239088903390899089906004016113e8565b6020604051808303815f875af1158015610d3f573d5f5f3e3d5ffd5b505050506040513d601f19601f82011682018060405250810190610d639190611427565b8154604051630f8e573b60e21b8152600481018390523360248201529193506001600160a01b031690633e395cec906044015f604051808303815f87803b158015610dac575f5ffd5b505af1158015610dbe573d5f5f3e3d5ffd5b50505050509392505050565b5f6109b3826008610efe565b5f807f9e7b61f58c47dc699ac88507c4f5bb9f121c03808c5676a8078fe583e464970080546040516382027b6d60e01b8152600481018790526001600160a01b0386811660248301529293509116906382027b6d90604401602060405180830381865afa158015610e49573d5f5f3e3d5ffd5b505050506040513d601f19601f82011682018060405250810190610e6d9190611228565b949350505050565b5f7f9e7b61f58c47dc699ac88507c4f5bb9f121c03808c5676a8078fe583e46497008054604051635ca4b5b160e11b8152600481018690526001600160a01b03858116602483015292935091169063b9496b62906044015f604051808303815f87803b158015610ee3575f5ffd5b505af1158015610ef5573d5f5f3e3d5ffd5b50505050505050565b7f9e7b61f58c47dc699ac88507c4f5bb9f121c03808c5676a8078fe583e464970154604051639cd07acb60e01b81525f917f9e7b61f58c47dc699ac88507c4f5bb9f121c03808c5676a8078fe583e4649700916001600160a01b0390911690639cd07acb90610f73908790879060040161143e565b6020604051808303815f875af1158015610f8f573d5f5f3e3d5ffd5b505050506040513d601f19601f82011682018060405250810190610e6d9190611427565b5f60208284031215610fc3575f5ffd5b5035919050565b5f5f83601f840112610fda575f5ffd5b50813567ffffffffffffffff811115610ff1575f5ffd5b602083019150836020828501011115611008575f5ffd5b9250929050565b5f5f5f5f5f5f5f6080888a031215611025575f5ffd5b873567ffffffffffffffff81111561103b575f5ffd5b6110478a828b01610fca565b909850965050602088013567ffffffffffffffff811115611066575f5ffd5b6110728a828b01610fca565b90965094505060408801359250606088013567ffffffffffffffff811115611098575f5ffd5b6110a48a828b01610fca565b989b979a50959850939692959293505050565b5f602082840312156110c7575f5ffd5b81356001600160a01b0381168114610c4f575f5ffd5b5f81518084528060208401602086015e5f602082860101526020601f19601f83011685010191505092915050565b60208152815160208201526001600160a01b036020830151166040820152604082015160608201525f6060830151610100608084015261114f6101208401826110dd565b90506080840151601f198483030160a085015261116c82826110dd565b91505060a084015161118260c085018215159052565b5060c084015160e084015260e08401516101008401528091505092915050565b8881526001600160a01b038816602082015286604082015261010060608201525f6111d16101008301886110dd565b82810360808401526111e381886110dd565b95151560a0840152505060c081019290925260e09091015295945050505050565b5f6001820161122157634e487b7160e01b5f52601160045260245ffd5b5060010190565b5f60208284031215611238575f5ffd5b81518015158114610c4f575f5ffd5b634e487b7160e01b5f52604160045260245ffd5b600181811c9082168061126f57607f821691505b60208210810361128d57634e487b7160e01b5f52602260045260245ffd5b50919050565b601f8211156112da57805f5260205f20601f840160051c810160208510156112b85750805b601f840160051c820191505b818110156112d7575f81556001016112c4565b50505b505050565b815167ffffffffffffffff8111156112f9576112f9611247565b61130d81611307845461125b565b84611293565b6020601f82116001811461133f575f83156113285750848201515b5f19600385901b1c1916600184901b1784556112d7565b5f84815260208120601f198516915b8281101561136e578785015182556020948501946001909201910161134e565b508482101561138b57868401515f19600387901b60f8161c191681555b50505050600190811b01905550565b60208152816020820152818360408301375f818301604090810191909152601f909201601f19160101919050565b605481106113e457634e487b7160e01b5f52602160045260245ffd5b9052565b8481526001600160a01b0384166020820152608060408201525f61140f60808301856110dd565b905061141e60608301846113c8565b95945050505050565b5f60208284031215611437575f5ffd5b5051919050565b82815260408101610c4f60208301846113c856fea164736f6c634300081b000a",
  "linkReferences": {},
  "deployedLinkReferences": {}
}