{
  "_format": "hh-sol-artifact-1",
  "contractName": "WhisperStats",
  "sourceName": "contracts/core/WhisperStats.sol",
  "abi": [
    {
      "inputs": [
        {
          "internalType": "address",
          "name": "_accessControl",
          "type": "address"
        }
      ],
      "stateMutability": "nonpayable",
      "type": "constructor"
    },
    {
      "inputs": [
        {
          "internalType": "address",
          "name": "caller",
          "type": "address"
        }
      ],
      "name": "NotAdmin",
      "type": "error"
    },
    {
      "anonymous": false,
      "inputs": [
        {
          "indexed": true,
          "internalType": "address",
          "name": "user",
          "type": "address"
        },
        {
          "indexed": false,
          "internalType": "string",
          "name": "category",
          "type": "string"
        },
        {
          "indexed": false,
          "internalType": "uint256",
          "name": "newValue",
          "type": "uint256"
        }
      ],
      "name": "StatsUpdated",
      "type": "event"
    },
    {
      "inputs": [],
      "name": "accessControl",
      "outputs": [
        {
          "internalType": "contract IAccessControlManager",
          "name": "",
          "type": "address"
        }
      ],
      "stateMutability": "view",
      "type": "function"
    },
    {
      "inputs": [
        {
          "internalType": "address",
          "name": "journalist",
          "type": "address"
        },
        {
          "internalType": "uint256",
          "name": "amount",
          "type": "uint256"
        }
      ],
      "name": "addBountiesPaid",
      "outputs": [],
      "stateMutability": "nonpayable",
      "type": "function"
    },
    {
      "inputs": [
        {
          "internalType": "address",
          "name": "whisperer",
          "type": "address"
        },
        {
          "internalType": "uint256",
          "name": "amount",
          "type": "uint256"
        }
      ],
      "name": "addEarnings",
      "outputs": [],
      "stateMutability": "nonpayable",
      "type": "function"
    },
    {
      "inputs": [
        {
          "internalType": "address",
          "name": "journalist",
          "type": "address"
        }
      ],
      "name": "incrementCases",
      "outputs": [],
      "stateMutability": "nonpayable",
      "type": "function"
    },
    {
      "inputs": [
        {
          "internalType": "address",
          "name": "whisperer",
          "type": "address"
        }
      ],
      "name": "incrementWhispers",
      "outputs": [],
      "stateMutability": "nonpayable",
      "type": "function"
    },
    {
      "inputs": [],
      "name": "totalPlatformCases",
      "outputs": [
        {
          "internalType": "uint256",
          "name": "",
          "type": "uint256"
        }
      ],
      "stateMutability": "view",
      "type": "function"
    },
    {
      "inputs": [],
      "name": "totalPlatformWhispers",
      "outputs": [
        {
          "internalType": "uint256",
          "name": "",
          "type": "uint256"
        }
      ],
      "stateMutability": "view",
      "type": "function"
    },
    {
      "inputs": [
        {
          "internalType": "address",
          "name": "",
          "type": "address"
        }
      ],
      "name": "userStats",
      "outputs": [
        {
          "internalType": "uint256",
          "name": "totalWhispers",
          "type": "uint256"
        },
        {
          "internalType": "uint256",
          "name": "totalEarned",
          "type": "uint256"
        },
        {
          "internalType": "uint256",
          "name": "managedCases",
          "type": "uint256"
        },
        {
          "internalType": "uint256",
          "name": "totalBountiesPaid",
          "type": "uint256"
        },
        {
          "internalType": "uint256",
          "name": "impactScore",
          "type": "uint256"
        }
      ],
      "stateMutability": "view",
      "type": "function"
    }
  ],
  "bytecode": "0x60a03461008757601f6107aa38819003918201601f19168301916001600160401b0383118484101761008b5780849260209460405283398101031261008757516001600160a01b038116908190036100875760805260405161070a90816100a0823960805181818160a801528181610228015281816103da01528181610515015261065a0152f35b5f80fd5b634e487b7160e01b5f52604160045260245ffdfe6080806040526004361015610012575f80fd5b5f3560e01c90816313007d551461063d5750806327b75c22146104e15780632d43f8761461039a5780637eb970d61461037d5780638a65d8741461031a578063af38432d146101f4578063b40613d8146101d75763cb86d94f14610074575f80fd5b346101d35760203660031901126101d35761008d61067e565b604051630935e01b60e21b81523360048201526020816024817f00000000000000000000000000000000000000000000000000000000000000006001600160a01b03165afa9081156101c8575f91610199575b5015610186576001600160a01b0316805f525f602052600260405f200161010781546106e2565b90556101146002546106e2565b600255805f525f6020527f352d5063755d3f2239ae47e1265b508546ceed46f7de0747be6cf45fd4b7fa2f6080600260405f2001546040519060408252600560408301527f636173657300000000000000000000000000000000000000000000000000000060608301526020820152a2005b630bd4212160e11b5f523360045260245ffd5b6101bb915060203d6020116101c1575b6101b38183610694565b8101906106ca565b5f6100e0565b503d6101a9565b6040513d5f823e3d90fd5b5f80fd5b346101d3575f3660031901126101d3576020600154604051908152f35b346101d35760403660031901126101d35761020d61067e565b604051630935e01b60e21b81523360048201526020816024817f00000000000000000000000000000000000000000000000000000000000000006001600160a01b03165afa9081156101c8575f916102fb575b5015610186576001600160a01b0316805f525f602052600360405f200161028a60243582546106f0565b9055805f525f6020527f352d5063755d3f2239ae47e1265b508546ceed46f7de0747be6cf45fd4b7fa2f6080600360405f2001546040519060408252600860408301527f626f756e7469657300000000000000000000000000000000000000000000000060608301526020820152a2005b610314915060203d6020116101c1576101b38183610694565b82610260565b346101d35760203660031901126101d3576001600160a01b0361033b61067e565b165f525f60205260a060405f20805490600181015490600281015460046003830154920154926040519485526020850152604084015260608301526080820152f35b346101d3575f3660031901126101d3576020600254604051908152f35b346101d35760403660031901126101d3576103b361067e565b60243590604051630935e01b60e21b81523360048201526020816024816001600160a01b037f0000000000000000000000000000000000000000000000000000000000000000165afa9081156101c8575f916104c2575b5015610186576001600160a01b031690815f525f602052600160405f20016104338282546106f0565b9055815f525f6020526104516064600460405f2001920482546106f0565b9055805f525f6020527f352d5063755d3f2239ae47e1265b508546ceed46f7de0747be6cf45fd4b7fa2f6080600160405f2001546040519060408252600860408301527f6561726e696e677300000000000000000000000000000000000000000000000060608301526020820152a2005b6104db915060203d6020116101c1576101b38183610694565b8361040a565b346101d35760203660031901126101d3576104fa61067e565b604051630935e01b60e21b81523360048201526020816024817f00000000000000000000000000000000000000000000000000000000000000006001600160a01b03165afa9081156101c8575f9161061e575b5015610186576001600160a01b0316805f525f60205260405f2061057181546106e2565b905561057e6001546106e2565b600155805f525f602052600460405f2001805490600a820180921161060a5755805f525f6020527f352d5063755d3f2239ae47e1265b508546ceed46f7de0747be6cf45fd4b7fa2f608060405f20546040519060408252600860408301527f776869737065727300000000000000000000000000000000000000000000000060608301526020820152a2005b634e487b7160e01b5f52601160045260245ffd5b610637915060203d6020116101c1576101b38183610694565b8261054d565b346101d3575f3660031901126101d3576020906001600160a01b037f0000000000000000000000000000000000000000000000000000000000000000168152f35b600435906001600160a01b03821682036101d357565b90601f8019910116810190811067ffffffffffffffff8211176106b657604052565b634e487b7160e01b5f52604160045260245ffd5b908160209103126101d3575180151581036101d35790565b5f19811461060a5760010190565b9190820180921161060a5756fea164736f6c634300081b000a",
  "linkReferences": {},
  "deployedLinkReferences": {}
}