{
  "_format": "hh-sol-artifact-1",
  "contractName": "WhisperStats",
  "sourceName": "contracts/core/WhisperStats.sol",
  "abi": [
    {
      "inputs": [
        {
          "internalType": "address",
          "name": "_accessControl",
          "type": "address"
        }
      ],
      "stateMutability": "nonpayable",
      "type": "constructor"
    },
    {
      "inputs": [
        {
          "internalType": "address",
          "name": "caller",
          "type": "address"
        }
      ],
      "name": "NotAdmin",
      "type": "error"
    },
    {
      "anonymous": false,
      "inputs": [
        {
          "indexed": true,
          "internalType": "address",
          "name": "user",
          "type": "address"
        },
        {
          "indexed": false,
          "internalType": "string",
          "name": "category",
          "type": "string"
        },
        {
          "indexed": false,
          "internalType": "uint256",
          "name": "newValue",
          "type": "uint256"
        }
      ],
      "name": "StatsUpdated",
      "type": "event"
    },
    {
      "inputs": [],
      "name": "accessControl",
      "outputs": [
        {
          "internalType": "contract IAccessControlManager",
          "name": "",
          "type": "address"
        }
      ],
      "stateMutability": "view",
      "type": "function"
    },
    {
      "inputs": [
        {
          "internalType": "address",
          "name": "journalist",
          "type": "address"
        },
        {
          "internalType": "uint256",
          "name": "amount",
          "type": "uint256"
        }
      ],
      "name": "addBountiesPaid",
      "outputs": [],
      "stateMutability": "nonpayable",
      "type": "function"
    },
    {
      "inputs": [
        {
          "internalType": "address",
          "name": "whisperer",
          "type": "address"
        },
        {
          "internalType": "uint256",
          "name": "amount",
          "type": "uint256"
        }
      ],
      "name": "addEarnings",
      "outputs": [],
      "stateMutability": "nonpayable",
      "type": "function"
    },
    {
      "inputs": [
        {
          "internalType": "address",
          "name": "journalist",
          "type": "address"
        }
      ],
      "name": "incrementCases",
      "outputs": [],
      "stateMutability": "nonpayable",
      "type": "function"
    },
    {
      "inputs": [
        {
          "internalType": "address",
          "name": "whisperer",
          "type": "address"
        }
      ],
      "name": "incrementWhispers",
      "outputs": [],
      "stateMutability": "nonpayable",
      "type": "function"
    },
    {
      "inputs": [],
      "name": "totalPlatformCases",
      "outputs": [
        {
          "internalType": "uint256",
          "name": "",
          "type": "uint256"
        }
      ],
      "stateMutability": "view",
      "type": "function"
    },
    {
      "inputs": [],
      "name": "totalPlatformWhispers",
      "outputs": [
        {
          "internalType": "uint256",
          "name": "",
          "type": "uint256"
        }
      ],
      "stateMutability": "view",
      "type": "function"
    },
    {
      "inputs": [
        {
          "internalType": "address",
          "name": "",
          "type": "address"
        }
      ],
      "name": "userStats",
      "outputs": [
        {
          "internalType": "uint256",
          "name": "totalWhispers",
          "type": "uint256"
        },
        {
          "internalType": "uint256",
          "name": "totalEarned",
          "type": "uint256"
        },
        {
          "internalType": "uint256",
          "name": "managedCases",
          "type": "uint256"
        },
        {
          "internalType": "uint256",
          "name": "totalBountiesPaid",
          "type": "uint256"
        },
        {
          "internalType": "uint256",
          "name": "impactScore",
          "type": "uint256"
        }
      ],
      "stateMutability": "view",
      "type": "function"
    }
  ],
  "bytecode": "0x60a060405234801561000f575f5ffd5b5060405161091638038061091683398101604081905261002e9161003f565b6001600160a01b031660805261006c565b5f6020828403121561004f575f5ffd5b81516001600160a01b0381168114610065575f5ffd5b9392505050565b60805161087761009f5f395f8181608e015281816101b40152818161034d015281816104e3015261063601526108775ff3fe608060405234801561000f575f5ffd5b5060043610610085575f3560e01c80638a65d874116100585780638a65d8741461010c578063af38432d14610170578063b40613d814610183578063cb86d94f1461018c575f5ffd5b806313007d551461008957806327b75c22146100cd5780632d43f876146100e25780637eb970d6146100f5575b5f5ffd5b6100b07f000000000000000000000000000000000000000000000000000000000000000081565b6040516001600160a01b0390911681526020015b60405180910390f35b6100e06100db36600461079f565b61019f565b005b6100e06100f03660046107bf565b610338565b6100fe60025481565b6040519081526020016100c4565b61014861011a36600461079f565b5f60208190529081526040902080546001820154600283015460038401546004909401549293919290919085565b604080519586526020860194909452928401919091526060830152608082015260a0016100c4565b6100e061017e3660046107bf565b6104ce565b6100fe60015481565b6100e061019a36600461079f565b610621565b604051630935e01b60e21b81523360048201527f00000000000000000000000000000000000000000000000000000000000000006001600160a01b0316906324d7806c90602401602060405180830381865afa158015610201573d5f5f3e3d5ffd5b505050506040513d601f19601f8201168201806040525081019061022591906107e7565b61024957604051630bd4212160e11b81523360048201526024015b60405180910390fd5b6001600160a01b0381165f90815260208190526040812080549161026c8361081a565b909155505060018054905f6102808361081a565b90915550506001600160a01b0381165f9081526020819052604081206004018054600a92906102b0908490610832565b90915550506001600160a01b0381165f81815260208181526040918290205482518381526008938101939093527f77686973706572730000000000000000000000000000000000000000000000006060840152908201527f352d5063755d3f2239ae47e1265b508546ceed46f7de0747be6cf45fd4b7fa2f906080015b60405180910390a250565b604051630935e01b60e21b81523360048201527f00000000000000000000000000000000000000000000000000000000000000006001600160a01b0316906324d7806c90602401602060405180830381865afa15801561039a573d5f5f3e3d5ffd5b505050506040513d601f19601f820116820180604052508101906103be91906107e7565b6103dd57604051630bd4212160e11b8152336004820152602401610240565b6001600160a01b0382165f9081526020819052604081206001018054839290610407908490610832565b90915550610418905060648261084b565b6001600160a01b0383165f9081526020819052604081206004018054909190610442908490610832565b90915550506001600160a01b0382165f81815260208181526040918290206001015482518381526008938101939093527f6561726e696e67730000000000000000000000000000000000000000000000006060840152908201527f352d5063755d3f2239ae47e1265b508546ceed46f7de0747be6cf45fd4b7fa2f906080015b60405180910390a25050565b604051630935e01b60e21b81523360048201527f00000000000000000000000000000000000000000000000000000000000000006001600160a01b0316906324d7806c90602401602060405180830381865afa158015610530573d5f5f3e3d5ffd5b505050506040513d601f19601f8201168201806040525081019061055491906107e7565b61057357604051630bd4212160e11b8152336004820152602401610240565b6001600160a01b0382165f908152602081905260408120600301805483929061059d908490610832565b90915550506001600160a01b0382165f81815260208181526040918290206003015482518381526008938101939093527f626f756e746965730000000000000000000000000000000000000000000000006060840152908201527f352d5063755d3f2239ae47e1265b508546ceed46f7de0747be6cf45fd4b7fa2f906080016104c2565b604051630935e01b60e21b81523360048201527f00000000000000000000000000000000000000000000000000000000000000006001600160a01b0316906324d7806c90602401602060405180830381865afa158015610683573d5f5f3e3d5ffd5b505050506040513d601f19601f820116820180604052508101906106a791906107e7565b6106c657604051630bd4212160e11b8152336004820152602401610240565b6001600160a01b0381165f9081526020819052604081206002018054916106ec8361081a565b909155505060028054905f6107008361081a565b90915550506001600160a01b0381165f81815260208181526040918290206002015482518381526005938101939093527f63617365730000000000000000000000000000000000000000000000000000006060840152908201527f352d5063755d3f2239ae47e1265b508546ceed46f7de0747be6cf45fd4b7fa2f9060800161032d565b80356001600160a01b038116811461079a575f5ffd5b919050565b5f602082840312156107af575f5ffd5b6107b882610784565b9392505050565b5f5f604083850312156107d0575f5ffd5b6107d983610784565b946020939093013593505050565b5f602082840312156107f7575f5ffd5b815180151581146107b8575f5ffd5b634e487b7160e01b5f52601160045260245ffd5b5f6001820161082b5761082b610806565b5060010190565b8082018082111561084557610845610806565b92915050565b5f8261086557634e487b7160e01b5f52601260045260245ffd5b50049056fea164736f6c634300081b000a",
  "linkReferences": {},
  "deployedLinkReferences": {}
}