{
  "_format": "hh-sol-artifact-1",
  "contractName": "WhisperVault",
  "sourceName": "contracts/vault/WhisperVault.sol",
  "abi": [
    {
      "inputs": [
        {
          "internalType": "address",
          "name": "_caseManager",
          "type": "address"
        },
        {
          "internalType": "address",
          "name": "_accessControl",
          "type": "address"
        }
      ],
      "stateMutability": "nonpayable",
      "type": "constructor"
    },
    {
      "inputs": [
        {
          "internalType": "uint256",
          "name": "caseId",
          "type": "uint256"
        }
      ],
      "name": "CaseAlreadyClosed",
      "type": "error"
    },
    {
      "inputs": [
        {
          "internalType": "address",
          "name": "caller",
          "type": "address"
        }
      ],
      "name": "NotAdmin",
      "type": "error"
    },
    {
      "inputs": [
        {
          "internalType": "address",
          "name": "caller",
          "type": "address"
        },
        {
          "internalType": "uint256",
          "name": "caseId",
          "type": "uint256"
        }
      ],
      "name": "OnlyCaseJournalist",
      "type": "error"
    },
    {
      "inputs": [
        {
          "internalType": "bytes32",
          "name": "handle",
          "type": "bytes32"
        },
        {
          "internalType": "address",
          "name": "sender",
          "type": "address"
        }
      ],
      "name": "SenderNotAllowedToUseHandle",
      "type": "error"
    },
    {
      "inputs": [],
      "name": "ZamaProtocolUnsupported",
      "type": "error"
    },
    {
      "anonymous": false,
      "inputs": [
        {
          "indexed": true,
          "internalType": "uint256",
          "name": "caseId",
          "type": "uint256"
        },
        {
          "indexed": false,
          "internalType": "uint256",
          "name": "whisperIndex",
          "type": "uint256"
        },
        {
          "indexed": false,
          "internalType": "bytes32",
          "name": "submitterHandle",
          "type": "bytes32"
        }
      ],
      "name": "SubmitterRevealRequested",
      "type": "event"
    },
    {
      "anonymous": false,
      "inputs": [
        {
          "indexed": true,
          "internalType": "uint256",
          "name": "caseId",
          "type": "uint256"
        },
        {
          "indexed": false,
          "internalType": "uint256",
          "name": "whisperIndex",
          "type": "uint256"
        },
        {
          "indexed": false,
          "internalType": "bytes32",
          "name": "messageHandle",
          "type": "bytes32"
        }
      ],
      "name": "WhisperRevealRequested",
      "type": "event"
    },
    {
      "anonymous": false,
      "inputs": [
        {
          "indexed": true,
          "internalType": "uint256",
          "name": "caseId",
          "type": "uint256"
        },
        {
          "indexed": false,
          "internalType": "uint256",
          "name": "whisperIndex",
          "type": "uint256"
        }
      ],
      "name": "WhisperSubmitted",
      "type": "event"
    },
    {
      "inputs": [],
      "name": "accessControl",
      "outputs": [
        {
          "internalType": "contract IAccessControlManager",
          "name": "",
          "type": "address"
        }
      ],
      "stateMutability": "view",
      "type": "function"
    },
    {
      "inputs": [],
      "name": "caseManager",
      "outputs": [
        {
          "internalType": "contract IWhisperCaseManager",
          "name": "",
          "type": "address"
        }
      ],
      "stateMutability": "view",
      "type": "function"
    },
    {
      "inputs": [],
      "name": "confidentialProtocolId",
      "outputs": [
        {
          "internalType": "uint256",
          "name": "",
          "type": "uint256"
        }
      ],
      "stateMutability": "view",
      "type": "function"
    },
    {
      "inputs": [],
      "name": "getAllWhispersCount",
      "outputs": [
        {
          "internalType": "uint256",
          "name": "",
          "type": "uint256"
        }
      ],
      "stateMutability": "view",
      "type": "function"
    },
    {
      "inputs": [
        {
          "internalType": "uint256",
          "name": "index",
          "type": "uint256"
        }
      ],
      "name": "getGlobalWhisper",
      "outputs": [
        {
          "components": [
            {
              "internalType": "uint256",
              "name": "caseId",
              "type": "uint256"
            },
            {
              "internalType": "euint256",
              "name": "encryptedMessage",
              "type": "bytes32"
            },
            {
              "internalType": "euint256",
              "name": "encryptedFileHash",
              "type": "bytes32"
            },
            {
              "internalType": "eaddress",
              "name": "encryptedSubmitter",
              "type": "bytes32"
            },
            {
              "internalType": "euint8",
              "name": "priority",
              "type": "bytes32"
            },
            {
              "internalType": "string",
              "name": "status",
              "type": "string"
            },
            {
              "internalType": "bool",
              "name": "isUrgent",
              "type": "bool"
            },
            {
              "components": [
                {
                  "internalType": "string",
                  "name": "name",
                  "type": "string"
                },
                {
                  "internalType": "string",
                  "name": "fileType",
                  "type": "string"
                },
                {
                  "internalType": "string",
                  "name": "size",
                  "type": "string"
                }
              ],
              "internalType": "struct IWhisperVault.Attachment[]",
              "name": "attachments",
              "type": "tuple[]"
            },
            {
              "internalType": "uint256",
              "name": "timestamp",
              "type": "uint256"
            },
            {
              "internalType": "bytes32",
              "name": "senderHash",
              "type": "bytes32"
            }
          ],
          "internalType": "struct IWhisperVault.Whisper",
          "name": "",
          "type": "tuple"
        }
      ],
      "stateMutability": "view",
      "type": "function"
    },
    {
      "inputs": [
        {
          "internalType": "uint256",
          "name": "caseId",
          "type": "uint256"
        },
        {
          "internalType": "uint256",
          "name": "whisperIndex",
          "type": "uint256"
        }
      ],
      "name": "getWhisper",
      "outputs": [
        {
          "components": [
            {
              "internalType": "uint256",
              "name": "caseId",
              "type": "uint256"
            },
            {
              "internalType": "euint256",
              "name": "encryptedMessage",
              "type": "bytes32"
            },
            {
              "internalType": "euint256",
              "name": "encryptedFileHash",
              "type": "bytes32"
            },
            {
              "internalType": "eaddress",
              "name": "encryptedSubmitter",
              "type": "bytes32"
            },
            {
              "internalType": "euint8",
              "name": "priority",
              "type": "bytes32"
            },
            {
              "internalType": "string",
              "name": "status",
              "type": "string"
            },
            {
              "internalType": "bool",
              "name": "isUrgent",
              "type": "bool"
            },
            {
              "components": [
                {
                  "internalType": "string",
                  "name": "name",
                  "type": "string"
                },
                {
                  "internalType": "string",
                  "name": "fileType",
                  "type": "string"
                },
                {
                  "internalType": "string",
                  "name": "size",
                  "type": "string"
                }
              ],
              "internalType": "struct IWhisperVault.Attachment[]",
              "name": "attachments",
              "type": "tuple[]"
            },
            {
              "internalType": "uint256",
              "name": "timestamp",
              "type": "uint256"
            },
            {
              "internalType": "bytes32",
              "name": "senderHash",
              "type": "bytes32"
            }
          ],
          "internalType": "struct IWhisperVault.Whisper",
          "name": "",
          "type": "tuple"
        }
      ],
      "stateMutability": "view",
      "type": "function"
    },
    {
      "inputs": [
        {
          "internalType": "uint256",
          "name": "caseId",
          "type": "uint256"
        }
      ],
      "name": "getWhisperCount",
      "outputs": [
        {
          "internalType": "uint256",
          "name": "",
          "type": "uint256"
        }
      ],
      "stateMutability": "view",
      "type": "function"
    },
    {
      "inputs": [
        {
          "internalType": "uint256",
          "name": "caseId",
          "type": "uint256"
        },
        {
          "internalType": "uint256",
          "name": "whisperIndex",
          "type": "uint256"
        }
      ],
      "name": "requestSubmitterReveal",
      "outputs": [],
      "stateMutability": "nonpayable",
      "type": "function"
    },
    {
      "inputs": [
        {
          "internalType": "uint256",
          "name": "caseId",
          "type": "uint256"
        },
        {
          "internalType": "uint256",
          "name": "whisperIndex",
          "type": "uint256"
        }
      ],
      "name": "requestWhisperReveal",
      "outputs": [],
      "stateMutability": "nonpayable",
      "type": "function"
    },
    {
      "inputs": [
        {
          "internalType": "address",
          "name": "_stats",
          "type": "address"
        }
      ],
      "name": "setStats",
      "outputs": [],
      "stateMutability": "nonpayable",
      "type": "function"
    },
    {
      "inputs": [],
      "name": "stats",
      "outputs": [
        {
          "internalType": "contract IWhisperStats",
          "name": "",
          "type": "address"
        }
      ],
      "stateMutability": "view",
      "type": "function"
    },
    {
      "inputs": [
        {
          "internalType": "uint256",
          "name": "caseId",
          "type": "uint256"
        },
        {
          "internalType": "string",
          "name": "status",
          "type": "string"
        },
        {
          "internalType": "bool",
          "name": "isUrgent",
          "type": "bool"
        },
        {
          "components": [
            {
              "internalType": "string",
              "name": "name",
              "type": "string"
            },
            {
              "internalType": "string",
              "name": "fileType",
              "type": "string"
            },
            {
              "internalType": "string",
              "name": "size",
              "type": "string"
            }
          ],
          "internalType": "struct IWhisperVault.Attachment[]",
          "name": "attachments",
          "type": "tuple[]"
        },
        {
          "internalType": "externalEuint256",
          "name": "encryptedMessage",
          "type": "bytes32"
        },
        {
          "internalType": "externalEuint256",
          "name": "encryptedFileHash",
          "type": "bytes32"
        },
        {
          "internalType": "externalEaddress",
          "name": "encryptedSubmitter",
          "type": "bytes32"
        },
        {
          "internalType": "externalEuint8",
          "name": "priority",
          "type": "bytes32"
        },
        {
          "internalType": "bytes",
          "name": "inputProof",
          "type": "bytes"
        }
      ],
      "name": "submitWhisper",
      "outputs": [],
      "stateMutability": "nonpayable",
      "type": "function"
    }
  ],
  "bytecode": "0x60c0604052346102ab57604051601f61246938819003918201601f19168301916001600160401b038311848410176102af5780849260409485528339810103126102ab576100586020610051836102e2565b92016102e2565b906100616102f6565b50466001036101c7576100726102f6565b5061007b6102c3565b73ca2e8f1f656cd25c01f05d0b243ab1ecd4a8ffb6815273d82385dada1ae3e969447f20a3164f6213100e7560208201527377627828a55156b04ac0dc0eb30467f1a552bb0360408201525b80517f9e7b61f58c47dc699ac88507c4f5bb9f121c03808c5676a8078fe583e464970080546001600160a01b03199081166001600160a01b039384161790915560208301517f9e7b61f58c47dc699ac88507c4f5bb9f121c03808c5676a8078fe583e4649701805483169184169190911790556040928301517f9e7b61f58c47dc699ac88507c4f5bb9f121c03808c5676a8078fe583e46497028054909216908316179055918216608052911660a05251612158908161031182396080518181816108fe01528181610ab201528181610d6c0152610e53015260a051818181610b3c01528181610c0f01528181610dcc01528181610f4c0152610ff70152f35b4662aa36a703610232576101d96102f6565b506101e26102c3565b73f0ffdc93b7e186bc2f8cb3daa75d86d1930a433d81527392c920834ec8941d2c77d188936e1f7a6f49c127602082015273be0e383937d564d7ff0bc3b46c51f0bf8d5c311a60408201526100c7565b46617a690361029c576102436102f6565b5061024c6102c3565b7350157cffd6bbfa2dece204a89ec419c23ef5755d815273e3a9105a3a932253a70f126eb1e3b589c643dd24602082015273901f8942346f7ab3a01f6d7613119bca447bb03060408201526100c7565b6373cac13b60e01b5f5260045ffd5b5f80fd5b634e487b7160e01b5f52604160045260245ffd5b60405190606082016001600160401b038111838210176102af57604052565b51906001600160a01b03821682036102ab57565b6102fe6102c3565b905f82525f60208301525f604083015256fe6080806040526004361015610012575f80fd5b5f905f3560e01c9081630a6f56d114610e2157508063107e555014610df057806313007d5514610dad57806330c4211014610d905780633eb8453014610d4d578063430fb79e14610d0c5780638927b03014610cea578063d80528ae14610cc5578063d8d2317c14610bcf578063de35858b146109e7578063f88b287e146100ce5763f91273dc146100a2575f80fd5b346100cb5760203660031901126100cb5760406020916004358152600183522054604051908152f35b80fd5b50346109ac576101203660031901126109ac5760243567ffffffffffffffff81116109ac576101019036906004016111e1565b6044359081151582036109ac5767ffffffffffffffff606435116109ac573660236064350112156109ac5767ffffffffffffffff60643560040135116109ac573660246064356004013560051b6064350101116109ac576101043567ffffffffffffffff81116109ac576101799036906004016111e1565b93906004356108f4575b610199610191368784611765565b608435611ac3565b946101dd6101d56101b66101ae368587611765565b60a435611ac3565b936101cd6101c5368684611765565b60c435611c27565b933691611765565b60e435611d22565b916101e787611aaa565b506101f181611aaa565b506101fb82611a59565b508283156108e1575b61020f903090611eed565b6004358852600160205260408820805490680100000000000000008210156108cd579061024191600182018155611515565b50966004358855600188015560028701556003860155600485015567ffffffffffffffff82116108b9576102858261027c600587015461157a565b600587016117b1565b8490601f83116001146108495791806102b8926102d6959488926104e9575b50508160011b915f199060031b1c19161790565b60058401559291925b600684019060ff801983541691151516179055565b42600883015560405160208101903360601b8252601481526102f9603482611240565b519020600983015580915b606435600401358310156106a05760248360051b6064350101359260821960643536030184121561069c5760078201546801000000000000000081101561068857600181018060078501558110156106745760078301845260208420946103726064358201602401806117f4565b9067ffffffffffffffff82116105f3576103a082610395600387028b015461157a565b600387028b016117b1565b8690601f8311600114610607576103cd92918891836104e95750508160011b915f199060031b1c19161790565b600383028701555b6103ea606435820160448101906024016117f4565b9067ffffffffffffffff82116105f35761041e826104106001600388028c01015461157a565b6001600388028c01016117b1565b8690601f831160011461057c5791806104509261046f95948a926104e95750508160011b915f199060031b1c19161790565b600160038502890101555b6024606482813501019160643501016117f4565b67ffffffffffffffff8197929711610568576104a5816104976002600387028601015461157a565b6002600387028601016117b1565b85601f82116001146104f4576104db82600294936003938a9b60019a9b926104e95750508160011b915f199060031b1c19161790565b93020101555b019190610304565b013590505f806102a4565b60038402830160020187526020872090601f198316885b818110610550575092600392600198999a8993836002989710610539575b505050811b0193020101556104e1565b01355f1983861b60f8161c191690555f8080610529565b9192602060018192868e01358155019401920161050b565b634e487b7160e01b86526041600452602486fd5b60038502890160010188526020882091601f198416895b8181106105db575091600193918561046f979694106105c2575b505050811b016001600385028901015561045b565b01355f19600384901b60f8161c191690555f80806105ad565b91936020600181928787013581550195019201610593565b634e487b7160e01b87526041600452602487fd5b60038502890188526020882091601f198416895b81811061065c5750908460019594939210610643575b505050811b01600383028701556103d5565b01355f19600384901b60f8161c191690555f8080610631565b9193602060018192878701358155019501920161061b565b634e487b7160e01b84526032600452602484fd5b634e487b7160e01b84526041600452602484fd5b8280fd5b60025468010000000000000000811015610835578060016106c492016002556114e5565b9190916108215780820361079b575b5050806001600160a01b0381541680610748575b50506004358152600160205260408120545f198101908111610734576040519081527f5170b1540b431a51cf2b480457c1b0416efb68ec1a8c91b7041ac120106298de602060043592a280f35b634e487b7160e01b82526011600452602482fd5b803b15610798578180916024604051809481936313dbae1160e11b83523360048401525af1801561078d57156106e7578161078291611240565b6100cb5780826106e7565b6040513d84823e3d90fd5b50fd5b6009818192548455600181015460018501556002810154600285015560038101546003850155600481015460048501556107db6005820160058601611827565b6107fb60ff600683015416600686019060ff801983541691151516179055565b61080b6007820160078601611955565b60088101546008850155015491015581806106d3565b634e487b7160e01b83526004839052602483fd5b634e487b7160e01b83526041600452602483fd5b6005850186526020862091601f198416875b8181106108a157509160019391856102d697969410610888575b505050811b0160058401559291926102c1565b01355f19600384901b60f8161c191690555f8080610875565b9193602060018192878701358155019501920161085b565b634e487b7160e01b85526041600452602485fd5b634e487b7160e01b8a52604160045260248afd5b5061020f6108ed6120ea565b9050610204565b6001600160a01b037f000000000000000000000000000000000000000000000000000000000000000016604051630152342160e71b815260043560048201525f81602481855afa80156109a157610140915f916109c5575b500151156109b057803b156109ac575f80916024604051809481936309bf959360e21b835260043560048401525af180156109a15761098c575b50610183565b6109999196505f90611240565b5f945f610986565b6040513d5f823e3d90fd5b5f80fd5b6330fec64b60e01b5f5260043560045260245ffd5b6109e191503d805f833e6109d98183611240565b8101906112e9565b5f61094c565b346109ac576109f536611098565b81610a97575b60407f4a6c8fd3d028e81de4b30fcdaa15209b2bf731270a2dfbb0e72728a6eadafeb891835f5260016020526001610a3582845f20611515565b500180548015610a89575b8091610a4b82611e1d565b55610a5581611aaa565b50808115610a76575b610a69903390611eed565b82519182526020820152a2005b50610a69610a82612089565b9050610a5e565b50610a92612089565b610a40565b604051630152342160e71b8152600481018390525f816024817f00000000000000000000000000000000000000000000000000000000000000006001600160a01b03165afa9081156109a1576001600160a01b03916020915f91610bb5575b5001511633141580610b20575b156109fb575b50639b49bd6960e01b5f523360045260245260445ffd5b50604051630935e01b60e21b81523360048201526020816024817f00000000000000000000000000000000000000000000000000000000000000006001600160a01b03165afa9081156109a1575f91610b7b575b5015610b03565b90506020813d602011610bad575b81610b9660209383611240565b810103126109ac57610ba790611262565b83610b74565b3d9150610b89565b610bc991503d805f833e6109d98183611240565b85610af6565b346109ac5760203660031901126109ac576004356001600160a01b0381168091036109ac57604051630935e01b60e21b81523360048201526020816024817f00000000000000000000000000000000000000000000000000000000000000006001600160a01b03165afa9081156109a1575f91610c8b575b5015610c78577fffffffffffffffffffffffff00000000000000000000000000000000000000005f5416175f555f80f35b630bd4212160e11b5f523360045260245ffd5b90506020813d602011610cbd575b81610ca660209383611240565b810103126109ac57610cb790611262565b82610c47565b3d9150610c99565b346109ac575f3660031901126109ac5760206001600160a01b035f5416604051908152f35b346109ac575f3660031901126109ac576020610d04611a7b565b604051908152f35b346109ac5760203660031901126109ac57610d2561152e565b50610d49610d3d610d376004356114e5565b50611652565b604051918291826110d2565b0390f35b346109ac575f3660031901126109ac5760206040516001600160a01b037f0000000000000000000000000000000000000000000000000000000000000000168152f35b346109ac575f3660031901126109ac576020600254604051908152f35b346109ac575f3660031901126109ac5760206040516001600160a01b037f0000000000000000000000000000000000000000000000000000000000000000168152f35b346109ac57610d49610d3d610d37610e0736611098565b90610e1061152e565b505f52600160205260405f20611515565b346109ac57610e2f36611098565b90918215610fdf5750604051630152342160e71b8152600481018390525f816024817f00000000000000000000000000000000000000000000000000000000000000006001600160a01b03165afa9081156109a1576001600160a01b03916020915f91610fc5575b5001511633141580610f30575b610b095760407f12039ed4f1122dc80eac37bf15976b0901920fa9ad3a7cb4c5254c6ea315d016915b835f5260016020526003610ee382845f20611515565b500180548015610f22575b8091610ef982611e1d565b55610f0381611a59565b50808115610f1657610a69903390611eed565b50610a69610a82611ff9565b50610f2b611ff9565b610eee565b50604051630935e01b60e21b81523360048201526020816024817f00000000000000000000000000000000000000000000000000000000000000006001600160a01b03165afa9081156109a1575f91610f8b575b5015610ea4565b90506020813d602011610fbd575b81610fa660209383611240565b810103126109ac57610fb790611262565b83610f84565b3d9150610f99565b610fd991503d805f833e6109d98183611240565b85610e97565b630935e01b60e21b81523360048201526020816024817f00000000000000000000000000000000000000000000000000000000000000006001600160a01b03165afa9081156109a1575f9161105e575b5015610c785760407f12039ed4f1122dc80eac37bf15976b0901920fa9ad3a7cb4c5254c6ea315d01691610ecd565b90506020813d602011611090575b8161107960209383611240565b810103126109ac5761108a90611262565b8361102f565b3d915061106c565b60409060031901126109ac576004359060243590565b805180835260209291819084018484015e5f828201840152601f01601f1916010190565b6020815281516020820152602082015160408201526040820151606082015260608201516080820152608082015160a082015261112060a083015161014060c08401526101608301906110ae565b9160c0810151151560e083015260e081015192601f1983820301610100840152835180825260208201916020808360051b8301019601925f915b83831061117f5750505050506101208161010061014093015182850152015191015290565b90919293966020806111d2600193601f198682030187528b519060406111c16111b184516060855260608501906110ae565b86850151848203888601526110ae565b9201519060408184039101526110ae565b9901930193019193929061115a565b9181601f840112156109ac5782359167ffffffffffffffff83116109ac57602083818601950101116109ac57565b610140810190811067ffffffffffffffff82111761122c57604052565b634e487b7160e01b5f52604160045260245ffd5b90601f8019910116810190811067ffffffffffffffff82111761122c57604052565b519081151582036109ac57565b67ffffffffffffffff811161122c57601f01601f191660200190565b81601f820112156109ac578051906112a28261126f565b926112b06040519485611240565b828452602083830101116109ac57815f9260208093018386015e8301015290565b67ffffffffffffffff811161122c5760051b60200190565b6020818303126109ac5780519067ffffffffffffffff82116109ac57016101a0818303126109ac57604051916101a0830183811067ffffffffffffffff82111761122c576040528151835260208201516001600160a01b03811681036109ac57602084015260408201516040840152606082015167ffffffffffffffff81116109ac578161137891840161128b565b6060840152608082015167ffffffffffffffff81116109ac578161139d91840161128b565b608084015260a082015167ffffffffffffffff81116109ac57816113c291840161128b565b60a084015260c082015167ffffffffffffffff81116109ac57816113e791840161128b565b60c084015260e082015167ffffffffffffffff81116109ac578161140c91840161128b565b60e084015261010082015167ffffffffffffffff81116109ac5782019080601f830112156109ac57815161143f816112d1565b9261144d6040519485611240565b81845260208085019260051b820101918383116109ac5760208201905b8382106114b7575050505050906101809161010084015261012081015161012084015261149a6101408201611262565b610140840152610160810151610160840152015161018082015290565b815167ffffffffffffffff81116109ac576020916114da8784809488010161128b565b81520191019061146a565b6002548110156115015760025f52600a60205f20910201905f90565b634e487b7160e01b5f52603260045260245ffd5b8054821015611501575f52600a60205f20910201905f90565b6040519061153b8261120f565b5f61012083828152826020820152826040820152826060820152826080820152606060a08201528260c0820152606060e0820152826101008201520152565b90600182811c921680156115a8575b602083101461159457565b634e487b7160e01b5f52602260045260245ffd5b91607f1691611589565b9060405191825f8254926115c58461157a565b808452936001811690811561163057506001146115ec575b506115ea92500383611240565b565b90505f9291925260205f20905f915b8183106116145750509060206115ea928201015f6115dd565b60209193508060019154838589010152019101909184926115fb565b9050602092506115ea94915060ff191682840152151560051b8201015f6115dd565b9060405161165f8161120f565b80928054825260018101546020830152600281015460408301526003810154606083015260048101546080830152611699600582016115b2565b60a083015260ff600682015416151560c0830152600781018054906116bd826112d1565b916116cb6040519384611240565b80835260208301915f5260205f20915f905b82821061170657505050506101209160099160e085015260088101546101008501520154910152565b6040516060810181811067ffffffffffffffff82111761122c57600192600392602092604052611735886115b2565b81526117428589016115b2565b83820152611752600289016115b2565b60408201528152019401910190926116dd565b9291926117718261126f565b9161177f6040519384611240565b8294818452818301116109ac578281602093845f960137010152565b8181106117a6575050565b5f815560010161179b565b9190601f81116117c057505050565b6115ea925f5260205f20906020601f840160051c830193106117ea575b601f0160051c019061179b565b90915081906117dd565b903590601e19813603018212156109ac570180359067ffffffffffffffff82116109ac576020019181360383136109ac57565b9190918281146119025761183b835461157a565b67ffffffffffffffff811161122c5761185e81611858845461157a565b846117b1565b5f93601f821160011461189c5761188d92939482915f926118915750508160011b915f199060031b1c19161790565b9055565b015490505f806102a4565b601f198216905f5260205f2094835f5260205f20915f5b8181106118ea575095836001959697106118d2575b505050811b019055565b01545f1960f88460031b161c191690555f80806118c8565b9192600180602092868b0154815501940192016118b3565b509050565b611911815461157a565b908161191b575050565b81601f5f931160011461192c575055565b8183526020832061194891601f0160051c81019060010161179b565b8082528160208120915555565b818114611a555781549168010000000000000000831161122c5781548383558084106119e1575b505f5260205f20905f5260205f205f915b83831061199a5750505050565b6003808260019385036119b4575b0192019201919061198d565b6119be8186611827565b6119cc848201858701611827565b6119dc6002820160028701611827565b6119a8565b80600302906003820403611a415783600302600381048503611a4157835f5260205f2091820191015b818110611a17575061197c565b80611a23600392611907565b611a2f60018201611907565b611a3b60028201611907565b01611a0a565b634e487b7160e01b5f52601160045260245ffd5b5050565b8015611a6d575b611a6a3082611eed565b90565b50611a76611ff9565b611a60565b46600103611a8857600190565b4662aa36a703611a985761271190565b617a694614611aa5575f90565b5f1990565b8015611aba57611a6a3082611eed565b50611a76612089565b815190919015611bef57611b266001600160a01b037f9e7b61f58c47dc699ac88507c4f5bb9f121c03808c5676a8078fe583e46497015416916040519363045fc19560e11b855260048501523360248501526080604485015260848401906110ae565b602091835f8180946008606483015203925af19081156109a1575f91611bbd575b506001600160a01b037f9e7b61f58c47dc699ac88507c4f5bb9f121c03808c5676a8078fe583e46497005416803b156109ac57604051630f8e573b60e21b815260048101839052336024820152905f908290818381604481015b03925af180156109a157611bb3575090565b5f611a6a91611240565b90506020813d602011611be7575b81611bd860209383611240565b810103126109ac57515f611b47565b3d9150611bcb565b508015611c1e57611c003382611f5e565b15611c085790565b630276b5d960e01b5f526004523360245260445ffd5b50611a6a612089565b815190919015611d0857611c8a6001600160a01b037f9e7b61f58c47dc699ac88507c4f5bb9f121c03808c5676a8078fe583e46497015416916040519363045fc19560e11b855260048501523360248501526080604485015260848401906110ae565b602091835f8180946007606483015203925af19081156109a1575f91611bbd57506001600160a01b037f9e7b61f58c47dc699ac88507c4f5bb9f121c03808c5676a8078fe583e46497005416803b156109ac57604051630f8e573b60e21b815260048101839052336024820152905f90829081838160448101611ba1565b508015611d1957611c003382611f5e565b50611a6a611ff9565b815190919015611e0357611d856001600160a01b037f9e7b61f58c47dc699ac88507c4f5bb9f121c03808c5676a8078fe583e46497015416916040519363045fc19560e11b855260048501523360248501526080604485015260848401906110ae565b602091835f8180946002606483015203925af19081156109a1575f91611bbd57506001600160a01b037f9e7b61f58c47dc699ac88507c4f5bb9f121c03808c5676a8078fe583e46497005416803b156109ac57604051630f8e573b60e21b815260048101839052336024820152905f90829081838160448101611ba1565b508015611e1457611c003382611f5e565b50611a6a6120ea565b6040805191611e2c8284611240565b600183526020830190601f1983013683378351156115015781526001600160a01b037f9e7b61f58c47dc699ac88507c4f5bb9f121c03808c5676a8078fe583e4649700541690813b156109ac578251637d6e912360e11b815260206004820152935160248501819052849160448301915f5b818110611ed45750505091815f81819503925af1908115611ecb5750611ec15750565b5f6115ea91611240565b513d5f823e3d90fd5b8251845287945060209384019390920191600101611e9e565b6001600160a01b037f9e7b61f58c47dc699ac88507c4f5bb9f121c03808c5676a8078fe583e4649700541691823b156109ac57604051635ca4b5b160e11b815260048101929092526001600160a01b03166024820152905f908290604490829084905af180156109a157611ec15750565b7f9e7b61f58c47dc699ac88507c4f5bb9f121c03808c5676a8078fe583e4649700546040516382027b6d60e01b815260048101929092526001600160a01b039283166024830152909160209183916044918391165afa9081156109a1575f91611fc5575090565b90506020813d602011611ff1575b81611fe060209383611240565b810103126109ac57611a6a90611262565b3d9150611fd3565b7f9e7b61f58c47dc699ac88507c4f5bb9f121c03808c5676a8078fe583e464970154604051639cd07acb60e01b81525f6004820152906001600160a01b0316816044815f602094600760248401525af19081156109a1575f9161205a575090565b90506020813d602011612081575b8161207560209383611240565b810103126109ac575190565b3d9150612068565b7f9e7b61f58c47dc699ac88507c4f5bb9f121c03808c5676a8078fe583e464970154604051639cd07acb60e01b81525f6004820152906001600160a01b0316816044815f602094600860248401525af19081156109a1575f9161205a575090565b7f9e7b61f58c47dc699ac88507c4f5bb9f121c03808c5676a8078fe583e464970154604051639cd07acb60e01b81525f6004820152906001600160a01b0316816044815f602094600260248401525af19081156109a1575f9161205a57509056fea164736f6c634300081b000a",
  "linkReferences": {},
  "deployedLinkReferences": {}
}